S00F000072656275696C642E737265632E
S31500000000B8190020B125000021240000AD2500000C
S31500000010AD250000AD250000AD250000AD25000092
S31500000020000000000000000000000000AD250000F8
S31500000030AD25000000000000AD250000AD25000044
S31500000040251C00007D150000ED1400000D160000B3
S315000000505D1600007D150000ED1400000D16000071
S315000000605D160000791E0000000000000000000080
S31500000070000000000000000000000000000000007A
S31500000080000000000000000000000000000000006A
S31500000090000000000000000000000000000000005A
S315000000A0000000000000000000000000000000004A
S315000000B0000000000000000000000000000000003A
S315000000C0000000000000000000000000000000002A
S315000000D0000000000000000000000000000000001A
S315000000E0000000000000000000000000000000000A
S315000000F000000000000000000000000000000000FA
S3150000010000000000000000000000000000000000E9
S3150000011000000000000000000000000000000000D9
S3150000012000000000000000000000000000000000C9
S3150000013000000000000000000000000000000000B9
S3150000014000000000000000000000000000000000A9
S315000001500000000000000000000000000000000099
S315000001600000000000000000000000000000000089
S315000001700000000000000000000000000000000079
S315000001800000000000000000000000000000000069
S315000001900000000000000000000000000000000059
S315000001A00000000000000000000000000000000049
S315000001B00000000000000000000000000000000039
S315000001C0FFFFFFFFFFFFFFFFFFFFFFFFFFFFFFFF39
S315000001D0FFFFFFFFFFFFFFFFFFFFFFFFFFFFFFFF29
S315000001E0FFFFFFFFFFFFFFFFFFFFFFFFFFFFFFFF19
S315000001F0FFFFFFFFFFFFFFFFFFFFFFFFFFFFFFFF09
S3150000020010B5054C237833B9044B13B1044800E00C
S3150000021000BF0123237010BD600000200000000015
S31500000220602F000008B5034B1BB10349034800E0EB
S3150000023000BF08BD0000000064000020602F000021
S31500000240F8B50446DFF8E4C02D4A9CF8003017687C
S315000002502C4907FB03F3A1FB03232B4E2B485B0919
S315000002603588008823609CF80030294AC3F164036E
S3150000027007FB03F3A1FB03C312785B096360C2F1BA
S31500000280640307FB03F307FB02F2A1FB0272A1FB67
S31500000290031352095B09401BA260E36080B200F0C1
S315000002A09FF81C4A3388208210881B4DC01A80B2E2
S315000002B000F096F803461949328808886382801A46
S315000002C080B200F08DF8034615492A880888A38273
S315000002D0801A80B200F0AEF8034612492A880888D0
S315000002E0E382801A80B200F07BF803460E492A8822
S315000002F008882383801A80B200F072F86083F8BD04
S31500000300100000201F85EB511A000020200000205D
S31500000310040000201C000020080000201800002017
S315000003200E0000200A000020060000201E0000200B
S3150000033006EE900A9FED0F7AF8EE666ADFED0E4A3A
S3150000034066EE876A9FED0D5A86EEA47ADFED0C7A8B
S3150000035037EE457ADFED0B5A27EE277AB6EE006ABE
S31500000360C7EE257A77EE867AFCEEE77A17EE903AB4
S3150000037098B2704700404E4500F07F450000C843E4
S3150000038000000C430000C84406EE900A9FED0F7A69
S31500000390F8EE666ADFED0E4A66EE876A9FED0D5A45
S315000003A086EEA47ADFED0C7A37EE457ADFED0B5A4E
S315000003B027EE277AB6EE006AC7EE257A77EE867ABA
S315000003C0FCEEE77A17EE903A98B2704700404E4539
S315000003D000F07F450000C84300007A440000C8448E
S315000003E04FF4C86303FB00F007EE100ADFED0D4A79
S315000003F0F8EEC76A9FED0C5A86EEA47ADFED0B7A0B
S3150000040037EE057ADFED0A5A27EE277AB6EE006A4E
S31500000410C7EE257A77EE867AFCEEE77A17EE903A03
S3150000042098B2704700000C430000C84300F07F45B7
S3150000043000404E454FF4C86303FB00F007EE100A78
S31500000440DFED0D4AF8EEC76A9FED0C5A86EEA47AE8
S31500000450DFED0B7A37EE057ADFED0A5A27EE277ABB
S31500000460B6EE006AC7EE257A77EE867AFCEEE77A74
S3150000047017EE903A98B2704700007A440000C843DD
S3150000048000F07F4500404E450023F0B50546444840
S3150000049083B0ADF80230ADF80430ADF8063004464E
S315000004A00E4601F02FFD01238DF8003069462046E7
S315000004B001F02EFD9DF80030012BF7D0394B0DF1E0
S315000004C0020293F90010364801F02AFD364B01AAC4
S315000004D093F90010324801F023FD344B0DF106026A
S315000004E093F900102E4801F01BFD00224FF4807195
S315000004F02F4801F01FF9002240F201112C4801F0AB
S3150000050019F9AC8ABDF80200698A84428CBF0024BE
S315000005100124814234BF002101214FF0000C254FF8
S31500000520717087F800C0BDF80410B5F81AC0B47031
S315000005302C8B8C458CBF4FF0000C4FF0010C8C427D
S3150000054034BF002401241C4A1C4B1288B471BDF828
S3150000055006401B88A2428CBF00220122A34234BF60
S3150000056000230123F2722A8AB372EB8A824234BFD5
S31500000570002201228B4234BF002301231049114D72
S3150000058086F807C02A700B70FFF7D2FE03460E4CA2
S31500000590BDF804006380FFF7F7FEA08003B0F0BD4E
S315000005A03C0100201F0000200C000020300000202D
S315000005B034010020A2000020302A0000322A000068
S315000005C0A3000020A4000020EC0000202DE9F8493B
S315000005D05D4D04462B781BB95C4B1B78002B70D104
S315000005E02B7883B14FF0000859495A4A2368D2E95B
S315000005F00067D1E900BCB6EB0B0067EB0C01834248
S3150000060078EB010378D32B7803F0FF057BB9514AC9
S31500000610514B6668D2E90001D3E90078C21B61EB51
S315000006200803964275EB03033CBF4C4B1D704C4DC3
S315000006302B7813B94B4B1B7843BB2B7883B14FF008
S3150000064000084949434AA368D2E90067D1E900BCDA
S31500000650B6EB0B0067EB0C01834278EB01035FD32B
S315000006602B7803F0FF057BB93A4A404BE468D2E9A0
S315000006700001D3E90067821B61EB0703944275EB27
S3150000068003033CBF3A4B1D70BDE8F889384B1A7816
S31500000690002AD2D10126DFF8BCC02E709CED007B6B
S315000006A0314F32464FF48571324887ED007B1E701C
S315000006B001F040F832464FF4E0612E4801F03AF876
S315000006C0BBE7264B1A78002A8AD10126DFF884C0B8
S315000006D02E709CED007B1E4F324640F20B112548D2
S315000006E087ED007B1E7001F025F8324640F202715C
S315000006F0204801F01FF873E7174B85F80080D2E910
S3150000070000014246C3E9000140F20B11194801F00D
S3150000071011F8424640F20271164801F00BF872E7F2
S31500000720124B85F80080D2E900014246C3E9000178
S315000007304FF485710F4800F0FDFF42464FF4E0612B
S315000007400C4800F0F7FF8BE7A1000020A400002072
S3150000075098000020A800002088000020A6000020A5
S31500000760A0000020A30000209000002080000020B0
S31500000770A50000203401002010B5084C01224FF4DA
S315000007808071204600F0D6FF012240F2011120467A
S3150000079000F0D0FF0122024B1A7010BD3401002078
S315000007A0A200002003795BB910B4064CD4E90023FB
S315000007B0501C43F10001C4E900015DF8044B704789
S315000007C0704700BFA80000202DE9804897B00FA809
S315000007D0FFF736FD00230122694C0B930C930D9312
S315000007E00E938DF80E208DF80F30D4E90023CDE955
S315000007F00423D4E90023CDE9062362496248D4E9FB
S315000008000023CDE9082301F0C5FB6049604801F0EB
S31500000810C9F86049604801F07FF96049604800F016
S31500000820B1FC6049584801F03BFC5B4801F01EF9F9
S315000008305D4B1968D4E900238A4273F10003F9D3AA
S315000008405A495B4801F078FA594801F033FA002515
S31500000850DFF870A1574E584FDFF86C81DFF86CB1A6
S31500000860DFF82C913368DAF800C0D4E90001ACEB6C
S31500000870030EDDE90423CDE90023019B821A61EB17
S315000008800303724573F1000303D34C4B1B78002B13
S3150000089070D0D4E90001DDE90423CDE90023019BF2
S315000008A0821A61EB0303624573F1000302D29DF8DD
S315000008B00E304BB10BA90FA8FFF7E6FD8DF80E50D1
S315000008C0D4E90023CDE904230FA8FFF77FFED4E97E
S315000008D00023DDE90601CDE90023019B121A63EB33
S315000008E001033968914275EB030322D3D4E900234F
S315000008F0DDE90801CDE90023019B121A63EB010330
S31500000900D8F80010914275EB03030BD29DF80F3017
S3150000091053B32B4B988880B200F0B4F8D4E9002387
S31500000920CDE908239BF80030002B9BD000F010FB8C
S3150000093098E79DF80F3040F2064183F001038DF8E9
S315000009400F30D4E90023CDE9062348469DF80F2051
S3150000095000F0F0FE9DF80F2040F20171484682F04B
S31500000960010200F0E7FEC1E7154B588880B200F09F
S3150000097089F8D3E7FFF700FFDAF800C089E700BF80
S31500000980A80000205C2C00003C010020402D000047
S3150000099034010020F02C0000AC010020BC2C00002B
S315000009A07C010020802C00002C000020942C0000EC
S315000009B0600100202800002024000020A200002062
S315000009C0EC0000200000002014000020E6000020BB
S315000009D0022800D07047024B0248596800F0E2BF77
S315000009E0502C00003401002009280CD8DFE800F064
S315000009F00C121920272E353C4305012300220B70CB
S31500000A004A708A70CB70704700230B704B708B70E6
S31500000A10CB707047002301220B704B708B70CA702D
S31500000A207047002301220B704B708A70CB707047A1
S31500000A30002201230A704A708B70CB707047002326
S31500000A4001220B704A708B70CB7070470022012315
S31500000A500A704B708A70CB707047002301220B70AE
S31500000A604A708A70CB707047012300224B700A705F
S31500000A708B70CB707047002301224B700A708B700D
S31500000A80CB7070472A4A2DE9F84313889BB28342FC
S31500000A9034D1284E284DDFF8B0802B8800229BB237
S31500000AA038F82310254800F045FE2B889BB2022B10
S31500000AB03BD02B8801339BB22B80002440F20511DA
S31500000AC01F4FDFF878902B8848469BB206EB8303CE
S31500000AD01A5D89B282F00102013400F02BFE042C6B
S31500000AE002D057F8041BEEE72B8801229BB238F898
S31500000AF023101248BDE8F84300F01CBE1080108891
S31500000B000C4E104D80B206F10801A5FB0034E40836
S31500000B1004EB8403A0EB430080B2FFF765FFB1420C
S31500000B20A0B2A1F10401F0D1B4E700232B80C4E701
S31500000B30BC000020B0000020BE00002034010020D0
S31500000B40382A0000CDCCCCCC442A000099B1FF2233
S31500000B5000EB010C114630B4084D094C10F8013B6E
S31500000B605340EA5C604582EA0102E15CF6D130BCA2
S31500000B7042EA012070474FF6FF707047502A000086
S31500000B80502B000038B50446104D284601F0AEF84B
S31500000B900F4A104B116A1B680F4AC1F3026083406B
S31500000BA0C1F30221107ACB4023FA00F0A0FB040126
S31500000BB000230A4A01F062FD0146284601F0A4F826
S31500000BC02846BDE8384001F075B800BF6001002036
S31500000BD000E00140B0030020942C000040420F00CA
S31500000BE0027902B1704713490B78EBB110B5124C7C
S31500000BF00A701346114822881149C25CD2B2CA54FF
S31500000C002288013392B29A42F7DA202200210B4859
S31500000C1001F0D1FE0021012223880A489BB20380FD
S31500000C20094B21801A7010BD01234FF47A700B70A6
S31500000C30FFF7A8BFE0000020E2000020C00000206F
S31500000C40F4000020E4000020E60000200379042BD5
S31500000C5000D0704710B5044640F2EE20FFF792FF31
S31500000C600B4B1B7853B90B4A207A13880A499BB25F
S31500000C70C854138801339BB2138010BD2022002173
S31500000C80054801F098FE0022024B1A8010BD00BFF5
S31500000C90E0000020E2000020C000002070B50446FD
S31500000CA0104DA1B22846FFF751FF034620265FFAF2
S31500000CB083FE04F1010C2946A21CC3F307230A484C
S31500000CC005F804E005F80C3000F08AF932460021F8
S31500000CD0284601F070FE3246BDE870400021034808
S31500000CE001F069BE140100207C010020F400002000
S31500000CF02DE9F843DFF8CC8098F8021098F8034005
S31500000D0098F8042098F8053044EA012443EA0223BF
S31500000D105E1E1F460FFA83F9B3B27C2B2AD8E2195E
S31500000D20013A92B2022A254D35D807222A7098F840
S31500000D3001204FEA4903DBB2D2B26A70AB70BFB38F
S31500000D4003234FEA470C1E499C4431F81420581CD3
S31500000D50C2F30722EA5431F8142002330134D2B226
S31500000D6063452A54A4B2F0D170000530BDE8F843BB
S31500000D70FFF794BF0722032098F801300F4D43F088
S31500000D8080032A706B70A870FFF788FFE219013A9A
S31500000D9092B2022AC9D90721022298F8013003200B
S31500000DA043F0800329706B70AA70FFF777FFBCE7EA
S31500000DB00320BDE8F843FFF771BF00BF1401002010
S31500000DC0EC000020F40000202DE9F843DFF8BC8099
S31500000DD098F8021098F8034098F8042098F805301F
S31500000DE044EA012443EA02235F1E1E460FFA83F9F2
S31500000DF0BBB27C2B34D8234DA219013A92B2012AF8
S31500000E000BD90721022298F80130032043F0800312
S31500000E1029706B70AA70FFF741FF07222A7098F8B5
S31500000E2001204FEA4903DBB2D2B26A70AB7026B337
S31500000E3003234FEA460C144E9C4436F81420591CE2
S31500000E40C2F30720E8540233D2B2013463456A5430
S31500000E50A4B2F2D178000530BDE8F843FFF71EBF13
S31500000E600320072298F80130064D43F080032A70CC
S31500000E706B70A870FFF712FFBEE70320BDE8F843CA
S31500000E80FFF70CBF14010020E8000020F40000204A
S31500000E902DE9F0412B4DAA78EC782B7995F8058051
S31500000EA044EA022448EA032808F1FF337A2B3CD8A7
S31500000EB0254F04EB0806B6B2731E042B29D8B8F1E9
S31500000EC0000F10D00623DFF884C021465A1CE85CC8
S31500000ED00134AA5CA4B242EA0022A64203F102034C
S31500000EE02CF81120F1D107233B706B780620DBB27A
S31500000EF07B70AB78DBB2BB70EB78DBB2FB702B7927
S31500000F00DBB23B716B79DBB27B71BDE8F041FFF779
S31500000F10C5BE072102226B78032043F08003397097
S31500000F207B70BA70FFF7BAFEC9E7032007226B7819
S31500000F30054F43F080033A707B70B870FFF7AEFE42
S31500000F40B7E700BFF400002014010020E8000020ED
S31500000F5038B51C4D1C4C29882046023989B2FFF74A
S31500000F60F5FD2B889BB2E25C2B889BB2013BE35CD0
S31500000F7043EA0223984203D00022144B1A7038BD6C
S31500000F802378072BDAB2F7D161780429CBB20FD0D8
S31500000F90102B13D0032B0ED0012561780C4B41F09A
S31500000FA080011A70032059709D70FFF777FEE3E702
S31500000FB0FFF79EFEE0E7FFF707FFDDE7FFF768FFB5
S31500000FC0DAE700BFE4000020F4000020E60000207D
S31500000FD01401002008B5FFF7F7FB002008BD00BF8D
S31500000FE070B5C369DB699C7BF4B9046AA37803F026
S31500000FF07B03A370837803F00303D21A0B440261C8
S31500001000A278C360837842F0800203F00303022BC8
S31500001010A27003D00B780020E37070BD0B8800200F
S3150000102043F47E43E38170BDEFF3108C012484F317
S3150000103010881D4C25682DB94FF0400E1B4EF570DB
S3150000104086F803E02568013525608CF31088B3F82F
S3150000105010C093F80FE04FEA1C23154D1B0153FAFD
S315000010608CFC55F82C3023F0011323F44043BEF1D9
S31500001070000F08BF43F0010343F0040345F82C308A
S31500001080EFF31085012383F31088236813B12368D7
S31500001090013B236023681BB98026044CE370E6708D
S315000010A085F31088A1E700BF24020020000D084048
S315000010B000080840F0B5846A85B005460F46944698
S315000010C06E46B4B194E80F0086E80F00EB6920463F
S315000010D01B7884F804C02360EB6AC4E902736B6A68
S315000010E09847AC6A1CB196E80F0084E80F0005B07B
S315000010F0F0BD3446EAE700BFC269937B03B9704787
S3150000110010B4EFF31080012383F310881A490B689B
S315000011101BB91A4CE3704023E3700B6801330B6074
S3150000112080F31088108A164C030A1B0153FA80F0CC
S3150000113054F82030D27B23F0011323F44043002AD5
S3150000114018BF43F0010343F0040344F82030EFF3E3
S315000011501082012383F310880B6813B10B68013BDF
S315000011600B600B681BB980200449CB70C87082F3F2
S3150000117010885DF8044B704724020020000D0840DB
S31500001180000808400022F8B501260D460B780270CB
S3150000119003F5800303F58C531B0203624B69C1619F
S315000011A043628378896966F301038262C162837050
S315000011B06B78044623B90222837862F301038370B5
S315000011C0012695F90B10C44A4B0901F01F0720337D
S315000011D006FA07F7A87A42F82370BFF34F8FBFF3DA
S315000011E06F8FBE4B01F1C00753F827C06FF3104C49
S315000011F043F827C053F82770B94F000102EB010CE2
S31500001200C0B28CF8000347F8214095F905102879FB
S315000012104FEA511C01F01F0E0CF1200C06FA0EFECF
S3150000122042F82CE0BFF34F8FBFF36F8F01F1C00C74
S3150000123053F82CE06FF3104E43F82CE053F82CC013
S31500001240000102EB010CC0B28CF8000347F8214004
S3150000125095F90710A8794FEA511C01F01F0E0CF101
S31500001260200C06FA0EFE42F82CE0BFF34F8FBFF3B8
S315000012706F8F01F1C00C53F82CE06FF3104E43F85A
S315000012802CE053F82CC0000102EB010CC0B28CF824
S31500001290000347F8214095F90910287A4FEA511CB6
S315000012A001F01F0E0CF1200C06FA0EFE42F82CE09F
S315000012B0BFF34F8FBFF36F8F01F1C00C53F82CE0D3
S315000012C06FF3104E43F82CE053F82C300301DBB2D9
S315000012D00A4482F8003347F82140E069FFF70CFF23
S315000012E0EFF3108086F310884FF000417D4B2E7887
S315000012F05A68F14022EA01025A605B6880F310885E
S31500001300002240F2F931236A40F2F9309A701A71DC
S315000013105A729A72DA725A832A7821FA02F2D60738
S3150000132044BF4022DA740622E9691A772A786E7871
S31500001330D040AF78EA78C50748BF4FF478404FEA07
S31500001340C20248BF9882032E42EA071200F0BF800D
S31500001350002E14BFF220E220D2B21A7098710A7BD6
S31500001360082A0EBF0A22520002F002025A734A7875
S315000013708878D201400100F02000D2B2024300205A
S3150000138018720D78A81E012840F29880D2B2DA7140
S315000013904A68907856785870187866F30100187085
S315000013A0D07812789874D87902F05C0200F0A30025
S315000013B00243DA710020E2692061A061E0606061A9
S315000013C092F90560454B06F1C00253F8227060F3AE
S315000013D0104743F8227053F82220BFF35F8F4FF077
S315000013E0010E7209920006F01F0602F1604202F534
S315000013F061420EFA06F6C2F880611660E26992F959
S315000014000B6006F1C00253F8227060F3104743F8F0
S31500001410227053F82220BFF35F8F7209920006F004
S315000014201F0602F160420EFA06F602F56142C2F8A4
S3150000143080611660E26992F907C00CF1C00253F8A8
S31500001440226060F3104643F8226053F82220BFF36F
S315000014505F8F4FEA5C1292000CF01F0C02F16042A3
S315000014600EFA0CF602F56142C2F880611660E26976
S3150000147092F9092002F1C00653F8267060F310476E
S3150000148043F8267053F82630BFF35F8F53099B004D
S3150000149002F01F0203F160430EFA02F203F5614304
S315000014A0C3F880211A60236A05F0030545F070052C
S315000014B04A899D700C4B22816360F8BDFF20022D86
S315000014C008BF42F01002D2B25870DA7172E7F22009
S315000014D042F0400240E700BF00E100E0006000404B
S315000014E028020020004008405549435330B4EFF32A
S315000014F00383103B1F4A5BB203F1C00152F821007F
S315000015006FF3104042F8210052F821201A4A52F88F
S315000015102300C3691B691BB103691BB130BC70474B
S3150000152003697BB9D0E908240021937803F07F038F
S3150000153043F004039370C160002CEFD030BC8022CE
S31500001540FFF7B8BD827802F003010229C1680BD00B
S31500001550046A91F800C084F803C002F003029B1AE3
S315000015600A44C0E90323D8E70C88056A44F47E449C
S31500001570EC81F2E7006000402802002010B582B03E
S31500001580EFF30383103B1F4A5BB203F1C00152F82D
S3150000159021006FF3104042F8210052F821201A4A28
S315000015A052F82340A27802F00303022B236A0CBFF1
S315000015B0198A5979A3690CBFC1F30801C9B201910F
S315000015C043B9636AB3B10422204602B0BDE81040B5
S315000015D0FFF770BD02F0030201A9606901F0DEF9B0
S315000015E0D4E90521A37803F003031A44C91AC4E910
S315000015F0052109B102B010BD636A002BFAD00122A1
S31500001600E2E700BF006000402802002038B5EFF393
S315000016100383104A103B5CB252F82450D5E9070206
S31500001620937803F07B039370FFF766FD6B6A23B133
S31500001630022200212846FFF73DFD074A04F1C003B8
S3150000164052F823106FF3104142F8231052F823305A
S3150000165038BD00BF2802002000600040F8B5EFF357
S3150000166003831A4A103B5CB252F82450AB7803F05D
S315000016700303022B2B6A0CBF1E8A5E7919790CBFF5
S31500001680C6F30806F6B201F03807C90604D51A7F74
S31500001690D20758BF47F04007187900F0C700187105
S315000016A0E869FFF729FD6B6A23B13A4631462846B9
S315000016B0FFF700FD064A04F1C00352F823106FF34A
S315000016C0104142F8231052F82330F8BD28020020BA
S315000016D0006000400022034610461A60704700BFB3
S315000016E00B0A10B41B01064C53FA81F154F8213051
S315000016F00020C3F340035DF8044B1370704700BF2E
S3150000170000080840090A490101F1804101F500215C
S315000017104B68002013807047090A490123EA020C2E
S3150000172001F180411A4001F5002142EA0C420020F5
S315000017308A6070470123C8B283404AB91A040B0A6B
S315000017405B0103F1804303F5002300209A60704794
S315000017509AB2F4E7090A490101F1804101F5002135
S3150000176010B40C6802EA030C4CEA040C62EA0302A9
S3150000177002EA0C0200205DF8044B0A60704700BFC5
S31500001780090A490101F1804101F500214B68002059
S31500001790C3F30F4313807047012310B44FEA112C93
S315000017A04FEA4C1C0CF1804C0CF5002CDCF8044084
S315000017B0C9B203FA01F18BB201EA1441C91AB1FAAE
S315000017C081F1490900205DF8044B1170704700BF94
S315000017D0090A490123EA020C01F180411A4001F588
S315000017E0002142EA0C420020CA607047012A14D048
S315000017F04FF480300B0A5B0103F1804303F50023AD
S3150000180010B4CAB2DC6800FA02F22243120C1204C7
S3150000181000205DF8044BDA6070470B0A5B0103F1A8
S31500001820804303F50023D868C9B28A40024392B2C6
S315000018300020DA60704700BF38B50488002C4CD011
S315000018400021436840F20245043303EBC40040F232
S31500001850034C40F2044E0C460FE062452FD153F87C
S31500001860042C02F0B852B2F1807F14BF41F002019D
S3150000187044F002040833834210D01A88AA42ECD1FD
S3150000188053F8042C083302F0B852B2F1807F14BF2B
S3150000189041F0010144F001048342EED1C943CDB2C7
S315000018A0012000F059FE0E4B012093F8BB2414438F
S315000018B02C4083F8BB44BDE8384000F01DBE72459D
S315000018C0D8D153F8042C02F0B852B2F1807F0CBF85
S315000018D044F0040441F00401CCE7FF25E0E700BF33
S315000018E000E00140F8B50446FFF7A6FFEFF31082CB
S315000018F0012383F31088284E33681BB92749CB7020
S315000019004023CB7033680133336082F31088238819
S315000019107BB3626803F1FF3E1FFA8EFE02F10801F7
S315000019201F4C01EBCE0E08E0D2B21B0113448E45CC
S315000019300A4644F823001CD008311068928810F437
S31500001940803F4FEA1223EFD0130AD2B202EB031CF8
S3150000195054F82C701B01134420F480356FF31047A4
S315000019608E4544F82C700A4644F82C5044F823005F
S31500001970E2D1EFF31082012383F31088336813B1A9
S315000019803368013B336033681BB980200349CB7051
S31500001990C87082F31088F8BD24020020000D0840AC
S315000019A00008084008B5034B03600846FFF79AFF96
S315000019B0002008BD54524F5008B50846FFF792FF65
S315000019C0002008BD70B5012684B002AB68460C46FF
S315000019D015460193ADF80060ADF80C100292FFF7C2
S315000019E02BFFEFF3108286F310881D490B681BB995
S315000019F040261C48C370C6700B6801330B6082F327
S31500001A001088EA034FEA1423E4B219D41B01164ADC
S31500001A10234442F82350EFF31082012383F3108806
S31500001A200B6813B10B68013B0B600B681BB9802078
S31500001A300C49CB70C87082F31088002004B070BDCA
S31500001A40094A04EB031052F820601B016FF310469D
S31500001A5042F8206025F4803642F82060D7E700BFC0
S31500001A6024020020000D084000080840034600201C
S31500001A70D3E902235360704770B5836984B0044686
S31500001A808C46164601AD9BB193E8070085E8070032
S31500001A9083F804C0E26918469E601A606369984735
S31500001AA0A3691BB195E8070083E8070004B070BD81
S31500001AB02B46EDE7002800DA704710B400F16043CA
S31500001AC00901134CC9B203F5614383F80013114BA6
S31500001AD000F1C00144F8202053F821206FF3104292
S31500001AE043F8212053F82130BFF35F8F01224309C9
S31500001AF09B0000F01F0003F1604303F5614302FA07
S31500001B0000F0C3F8800118605DF8044B704700BF11
S31500001B102802002000600040F8B501250446087C34
S31500001B200A4605FA00F3E3601B0718BF002361604D
S31500001B304FF0000118BF2374374B08BF25740344C8
S31500001B4050691B02A3606061D2E90635C4E9061339
S31500001B50EFF31087012383F310884FF000402F4BDB
S31500001B60167C20FA06F6186920EA060018611B6939
S31500001B7087F310884FF42540D5E906ECA3684FF0AB
S31500001B8000471860D962D96399641078117A0328DE
S31500001B904FF000004FEAC151566808BF41F480314A
S31500001BA0D962E96A013E1F615F619F61586298626E
S31500001BB0C3F81CE0C3F820C09E665E669863C3F84F
S31500001BC0880031B995F8211095F82000490741EAB7
S31500001BD040314FF4AA00032618640120E768DF604D
S31500001BE059631E631863517C92F912002246FFF76F
S31500001BF061FF224695F8221095F92400FFF75AFF57
S31500001C0095F92500224695F82310FFF753FF044B5C
S31500001C1000202360F8BD00BF901640000040084039
S31500001C205450470070B5EFF30383103B1E495BB277
S31500001C3003F1C00C51F82C009A006FF3104002F12A
S31500001C40804241F82C0002F5C042D2F80003174842
S31500001C5050F82300446894F800E0BEF1010F08D064
S31500001C6043692BB1BDE8704000221146FFF704BF5F
S31500001C7070BD0024D0E90256AE60AC64EC642C65FD
S31500001C8051F82C5064F3104541F82C50D2F800233B
S31500001C90BFF35F8F06495A0903F01F030EFA03F3D9
S31500001CA0603241F82230DBE7006000402802002065
S31500001CB000E100E08268117A01F00101137AC3F3B2
S31500001CC040039942FAD143681978012908D1C168BD
S31500001CD093F810C004484B1E9BB240F82C1013809A
S31500001CE0F123002013727047CC0100208268117A1C
S31500001CF001F00101137AC3F340039942FAD1F023AC
S31500001D0000201372704700BF826892F808C00CF07A
S31500001D10010C137AC3F340039C45FAD14368C160B2
S31500001D2093F810C003484B1E9BB240F82C1013804A
S31500001D3000207047CC010020F0B50B7C416003F514
S31500001D40800303F568631B028360EFF310850123AC
S31500001D5083F310880A7C032A70D8C2F103029340E9
S31500001D60DB433E4C3E4AE46823401360136885F328
S31500001D701088002382681372137AC3F3400C9B0702
S31500001D80FAD4CC6982F80AC0E37826780D7A2479E9
S31500001D9003F00703002E4AD1002D57D100261473F5
S31500001DA04C68D0F804E004F1FF3C967353729572C8
S31500001DB0C4609EF810302B4F1FFA8CFCA2F800C0AE
S31500001DC047F8234091F91230B34226DB4A7C03F1EF
S31500001DD060441201244DD2B204F5614484F8002314
S31500001DE0224A03F1C00445F8230052F8245066F352
S31500001DF0104542F8245052F82420BFF35F8F012487
S31500001E005A09920003F01F0302F1604202F5614293
S31500001E1004FA03F3C2F8803113600023D1E90541C7
S31500001E20134A04618161026043611846F0BD502E79
S31500001E3006BF654643F050033343AFE7C2F11302D2
S31500001E40064C9340DB430B4A24698DE785F0020577
S31500001E5043EA0513DBB23546A0E700BF0040084061
S31500001E600C400840CC010020280200200060004001
S31500001E705447410010400840F0B585B0EFF30383A6
S31500001E80103B1E4A5BB203F1C00152F821006FF30A
S31500001E90104042F8210052F82120194A52F82340F6
S31500001EA0D4E901120978137A0129DBB204D1F421AD
S31500001EB003F0F003117213722769B7B1656901AEB9
S31500001EC0CDB195E8070086E807009B0644BF0023CE
S31500001ED02B71A36928462B60B84763691BB196E846
S31500001EE0070083E80700A268137ADBB203F00F034A
S31500001EF0137205B0F0BD3546E7E700BF006000404D
S31500001F002802002003461A689B8A00201380704727
S31500001F1003461B6800201B88C3F3C0330B70704751
S31500001F2003461B68103133F81130002013807047C8
S31500001F30002800DA704710B400F160430901134C21
S31500001F40C9B203F5614383F80013114B00F1C001D8
S31500001F5044F8202053F821206FF3104243F8212043
S31500001F6053F82130BFF35F8F012243099B0000F035
S31500001F701F0003F1604303F5614302FA00F0C3F862
S31500001F80800118605DF8044B704700BF28020020EE
S31500001F90006000402DE9F0410027CA680B884E69B1
S31500001FA082610A695B02C0E9077203F1804303F5A7
S31500001FB0B81303604160054648790C46F278897883
S31500001FC0030243EA4133002A58D043F4307302280F
S31500001FD014BF00202F499BB208BF31F82200AB8204
S31500001FE02279E178D20342EA4102717896F800C07C
S31500001FF042EA4112EFF31088012181F31088B4F808
S3150000200000E0254FCEF1100E01FA0EF1D7F80CE0E4
S315000020102EEA0101F960F96888F3108847F6FF5146
S315000020200B40296892B20B800882CA8181F80CC0E5
S3150000203073792A46A3F10103B3FA83F35B0981F8A6
S31500002040D030217A94F90600FFF772FF2A46617AAA
S3150000205094F90700FFF76CFF2A46317A96F90600D5
S31500002060FFF766FF96F907002A46717AFFF760FFC9
S3150000207000200A4B2861AB60BDE8F08130B943F41B
S31500002080004343F040039BB2AB82A9E743F0400311
S315000020909DE700BF4C2F00000040084043444152DA
S315000020A043682DE9F0430C684A685E6903688D68E9
S315000020B01FFA84F8A3F804801FFA82F8A3F81480A4
S315000020C022F0405C1FFA85F824F0405E25F0405768
S315000020D02243A3F808804FEA1C4C3F0C4FEA1E48E7
S315000020E012F0405FA3F80680A3F816C05F8153D1B3
S315000020F0CF68002F00F0AF80B7F808C01CF4006F5F
S3150000210020D0D7E90052B7F80A80A3F890C0A3F808
S315000021109C80B7F80C80A3F89E801FFA85F8A3F878
S315000021209480C5F30B482D0FA3F8968083F8925040
S3150000213095B2A3F89850C2F30B45120FA3F89A5024
S3150000214083F893201CF4007F1AD10A8AA3F890C062
S31500002150A3F88020F2786AB1BEFA8EFE1A88818AC8
S3150000216092B222F01F021F32A2EB0E0292B211436C
S315000021701A808182394BC0E903340020BDE8F08320
S31500002180BA7CFD7C2A4383F8A620FA89A3F8A82006
S315000021903A8AA3F8AA20D8E741F23608304FD7F892
S315000021A02090304FC9F3026C3F68C9F3021907FA51
S315000021B00CFC2D4F2CFA09FCA7FB0C7C4FEA9C1C4F
S315000021C008FB0CFC294FA7FB0C7C4FEA9C4C0CF13E
S315000021D0010CBCF1070F38BF4FF0070C12F0805707
S315000021E022D0EFF31085012383F31088204BDC689F
S315000021F024F48004DC60DB6885F3108890251D4B91
S315000022000C681D7003685FFA8CF714F0805F8D68A8
S3150000221083F8DE7014BF4FF480774FF4806715F0B3
S31500002220805F18BF47F0010792000ED5A20048BF95
S3150000223047F400775FFA8CFC58BF47F40067AA00A2
S3150000224083F8DFC048BF47F00207BFB25F82CF689E
S31500002250002F7FF451AFBC4677E700BF434441529D
S3150000226000E00140B0030020D34D621083DE1B4323
S315000022700040084000300F40064B074993F82600FF
S315000022801A6A51F82030C2F302620449D3400B6047
S31500002290704700BF00E0014040000020B00300206E
S315000022A0F8B54AF2035001233749384AA1F8FE032C
S315000022B0A2F80431B2F804319BB2002BFAD1012105
S315000022C04FF400404FF0200E4FF0090C304C314EC9
S315000022D0314D6660E66006F137662B4B2F4F06F5EB
S315000022E0D8366661A2F80011A960296093F8262005
S315000022F02760A0602061186A54F82220284DC0F398
S315000023000260C2402A6083F813E483F8A2C093F8FF
S31500002310802492B300231C4981F8813481F88034EB
S3150000232081F8323091F83C301A07FBD54FF444500F
S315000023300023154A088581F82A3092F83C309B061E
S31500002340FBD503200523114981F81C0115490120FD
S31500002350116282F8263092F82630116A54F823303A
S31500002360C1F30261CB402B604FF4254382F8300065
S3150000237082F85200A2F8FE33F8BD40F2C44083F85A
S31500002380801400F019F8C5E700E0014000C00140E4
S315000023904000002000127A0000700040002D31013C
S315000023A0B003002021120120704700BFA0F10100F8
S315000023B00028FBD1704700BF10B54FF47A72164C57
S315000023C0164B24684FF0000EB3FBF4FC4FF0FF33BE
S315000023D000FB01F1A1FB020483427EEB040407D358
S315000023E0B0FBFCF0800880B1BDE81040FFF7DEBF0F
S315000023F04FEA8C0CB1FBFCF1A1FB02128B427EEB87
S31500002400020203D308460028EED110BD1846BDE8E7
S315000024101040FFF7CBBF00BFB003002000CA9A3BB5
S3150000242070B500240A4B0B4EB3F84051ADB225FAF5
S3150000243004F3DB07E0B203D556F8243003B198471E
S315000024400134102CF3D1024BA3F8305170BD00BFFC
S3150000245000600040E401002030B56FF0FF0585B054
S31500002460032000F079F84FF0FF311F4C1F48224639
S31500002470856400230125CDE90111039104F1C00E05
S3150000248032F8020F590960B104A800EB810151F836
S315000024900C0C03F01F0C05FA0CFC20EA0C0041F8AA
S315000024A00C0C724503F10103EAD10199104B0F4A56
S315000024B003201167C3F8801202995167C3F884128A
S315000024C003999167C3F8881200F016F800230948AB
S315000024D003F1C00234F8021F0133602B40F82210CA
S315000024E0F6D105B030BD00BF562E0000008000407A
S315000024F000E100E000600040EFF31081012383F368
S315000025001088124B33F8102092B22AB133F81020FB
S31500002510013A92B223F8102033F810309BB293B9E7
S315000025200B4A10B4B2F8FE330A4C9BB234F81000D2
S3150000253043F4254323EA0003A2F8FE3381F310880F
S315000025405DF8044B704781F310887047A80300209C
S3150000255000E00140582F000030B4EFF31081012352
S3150000256083F310880E4A32F810309BB26BB90D4CCB
S315000025700D4DB4F8FE3335F810C09BB243EA0C0398
S3150000258043F425439BB2A4F8FE3332F810300133EE
S315000025909BB222F8103081F3108830BC704700BF20
S315000025A0A803002000E00140582F000000BE70473D
S315000025B008B500F003F8FEF70DFDFEE74FF47002D4
S315000025C070B5244B244CC3F8882000209C60FEF78D
S315000025D0FFF9FFF765FE0120FEF7FAF92368A3F578
S315000025E0B05383F30A881D481D4A0021121A00F0D1
S315000025F0E2F91C481C4A1D49121A00F0CFF91C4D7D
S315000026001C4B5B1B002B07DD00249E1055F8043B7A
S3150000261001349847A642F9DCFFF72EFE0320FFF7A8
S315000026209BFF00234FF6FF70134903F108020133A5
S31500002630092B21F81200F8D10320FFF75DFF0220D5
S31500002640FEF7C6F9FFF708FFBDE870400020FFF768
S31500002650ABBE00BF00ED00E00000000060000020FF
S31500002660B403002000000020400000206C2F000072
S31500002670380000203C000020000D084053B94AB93C
S31500002680002908BF00281CBF4FF0FF314FF0FF3074
S3150000269000F082B9ADF1080C6DE904CE00F006F841
S315000026A0DDF804E0DDE9022304B070472DE9F04FC0
S315000026B0099D04460F46002B48D18A42944661D9AB
S315000026C0B2FA82F343B1C3F120019F4002FA03FC40
S315000026D09C4020FA01F10F434FEA1C411FFA8CFE81
S315000026E0220CB7FBF1F601FB167706FB0EF042EA69
S315000026F00742904208D91CEB020206F1FF3702D2CC
S31500002700904200F237813E46121AA4B2B2FBF1F0B3
S3150000271001FB102200FB0EFE44EA0244A64508D93E
S315000027201CEB040400F1FF3202D2A64500F21C8124
S31500002730104640EA0640A4EB0E0400261DB1DC401C
S315000027400023C5E900433146BDE8F08F8B4209D925
S31500002750002D00F0FD800026C5E900013046314617
S31500002760BDE8F08FB3FA83F6002E4BD18B42C0F052
S31500002770F280824240F2EF803046002DE3D0C5E978
S315000027800047E0E702B9FFDEB2FA82F3002B40F021
S315000027909D80891A4FEA124E97B20126200CB1FB92
S315000027A0FEF20EFB121140EA014107FB02F08842DD
S315000027B00FD91CEB010102F1FF382CBF4FF00109C4
S315000027C04FF00009884203D9B9F1000F00F0CF801D
S315000027D04246091AA4B2B1FBFEF00EFB101100FB33
S315000027E007F744EA0144A74208D91CEB040400F1A8
S315000027F0FF3102D2A74200F2B4800846E41B40EA49
S3150000280002409BE7C6F12007B34001FA06F422FA1C
S3150000281007FCF940B2404CEA030C20FA07F34FEAF2
S315000028201C491C431FFA8CFE00FA06F3200CB1FB70
S31500002830F9F809FB181140EA014108FB0EF088423D
S315000028400FD91CEB010108F1FF3A2CBF4FF0010B29
S315000028504FF0000B884203D9BBF1000F00F08D80CA
S31500002860D046091AA4B2B1FBF9F009FB101100FB1E
S315000028700EFE44EA01418E4507D91CEB010100F129
S31500002880FF3401D28E457FD8204640EA0840A1EBAE
S315000028900E01A0FB029841454C46C64602D306D11E
S315000028A04B4504D20138B9EB020468EB0C0E002D3F
S315000028B070D01A1B61EB0E0122FA06F301FA07F734
S315000028C0F14000261F43C5E900713CE702FA03FC0C
S315000028D0C3F1200001FA03F221FA00F64FEA1C4E7A
S315000028E024FA00F11FFA8CF79C401143B6FBFEF068
S315000028F00A0C0EFB106642EA064200FB07F69642F9
S315000029000ED91CEB020200F1FF382CBF4FF0010973
S315000029104FF00009964202D9B9F1000F31D0404676
S31500002920921B89B2B2FBFEF60EFB162241EA024169
S3150000293006FB07F28A4207D91CEB010106F1FF38B4
S3150000294001D28A4223D84646891A46EA004625E736
S315000029502E462846F7E6841A61EB030301201F463C
S315000029600BE76444023849E764440238E1E6023A78
S3150000297061442EE7023E6244C6E6A8F102086144BD
S315000029806FE702386244CBE7023861447DE7023ED6
S315000029906144D9E72E46D6E6704700BF0A44431E77
S315000029A0914200D1704710B511F8014B914203F8DE
S315000029B0014FF9D110BD02440346934200D170473E
S315000029C003F8011BF9E7FFFF4275696C742077690C
S315000029D074682052656E6573617320416476616E1A
S315000029E063656420466C657869626C6520536F6622
S315000029F07477617265205061636B616765207665E7
S31500002A007273696F6E20342E322E3000342E322EC1
S31500002A103000000000000204F8B500BFF8BC08BC96
S31500002A209E467047F8B500BFF8BC08BC9E46704786
S31500002A303C0E010505010000040100000301000031
S31500002A40020100000204000001040000000400006E
S31500002A5000C1814001C0804101C0804100C1814068
S31500002A6001C0804100C1814000C1814001C0804158
S31500002A7001C0804100C1814000C1814001C0804148
S31500002A8000C1814001C0804101C0804100C1814038
S31500002A9001C0804100C1814000C1814001C0804128
S31500002AA000C1814001C0804101C0804100C1814018
S31500002AB000C1814001C0804101C0804100C1814008
S31500002AC001C0804100C1814000C1814001C08041F8
S31500002AD001C0804100C1814000C1814001C08041E8
S31500002AE000C1814001C0804101C0804100C18140D8
S31500002AF000C1814001C0804101C0804100C18140C8
S31500002B0001C0804100C1814000C1814001C08041B7
S31500002B1000C1814001C0804101C0804100C18140A7
S31500002B2001C0804100C1814000C1814001C0804197
S31500002B3001C0804100C1814000C1814001C0804187
S31500002B4000C1814001C0804101C0804100C1814077
S31500002B5000C0C101C30302C2C60607C705C5C40437
S31500002B60CC0C0DCD0FCFCE0E0ACACB0BC90908C8A7
S31500002B70D81819D91BDBDA1A1EDEDF1FDD1D1CDC97
S31500002B8014D4D515D71716D6D21213D311D1D01007
S31500002B90F03031F133F3F23236F6F737F53534F4F7
S31500002BA03CFCFD3DFF3F3EFEFA3A3BFB39F9F83867
S31500002BB028E8E929EB2B2AEAEE2E2FEF2DEDEC2C57
S31500002BC0E42425E527E7E62622E2E323E12120E0C7
S31500002BD0A06061A163A3A26266A6A767A56564A4B7
S31500002BE06CACAD6DAF6F6EAEAA6A6BAB69A9A86827
S31500002BF078B8B979BB7B7ABABE7E7FBF7DBDBC7C17
S31500002C00B47475B577B7B67672B2B373B17170B086
S31500002C105090915193535292965657975595945476
S31500002C209C5C5D9D5F9F9E5E5A9A9B5B99595898E6
S31500002C30884849894B8B8A4A4E8E8F4F8D4D4C8CD6
S31500002C404484854587474686824243834181804046
S31500002C5034010020402D0000182F00000100000064
S31500002C600000DFDFFFFF00000000000000000000A2
S31500002C70742C0000000102000000DFDFFFFFFFFFF1
S31500002C80000012000000000000000000000000002C
S31500002C9000000018000000007C9200000000000008
S31500002CA03E49000000020900E10B000000000000A0
S31500002CB0B42C000000000001000000FF0302000029
S31500002CC00C050C060C070C080000000000000000B4
S31500002CD04D0C000000000000DC2C0000000100008C
S31500002CE0340000200F00FFFF00000000FFFF00007F
S31500002CF000000000A08601000000000050C3000094
S31500002D0000020000A507000000000000102D0000D2
S31500002D1000000000000000000000000000000000AD
S31500002D20000000000000000000000000000000009D
S31500002D300000FFFFDFDF00000000000000000000D1
S31500002D4022000000482D00000400000000010000E1
S31500002D500400000001010000040000000201000060
S31500002D60040000000301000004000000040100004C
S31500002D700400000005010000000001000801000039
S31500002D800000010009010000040000000A01000023
S31500002D90040000000B010000000001000003000019
S31500002DA0000001040103000000000104020300000A
S31500002DB000000000030300000400000000040000FF
S31500002DC004000000010400000400000002040000EA
S31500002DD004000000030400000400000004040000D6
S31500002DE004000000050400000400000006040000C2
S31500002DF000000105080400000000010509040000A8
S31500002E00040000000A040000040000000B04000097
S31500002E10000000000C040000008000000005000017
S31500002E20008000000105000000800000020500008F
S31500002E30008000000305000000800000040500007B
S31500002E400400000000070000040000000107000065
S31500002E500400000002070000C6008C018D018E01EF
S31500002E608F0192019301940195014000000000003A
S31500002E70000000000000000000000000000000004C
S31500002E80000000000000000000000000000000003C
S31500002E90000000000000000000000000000000002C
S31500002EA0000000000000000000000000000000001C
S31500002EB0000000000000000000000000000000000C
S31500002EC000000000000000000000000000000000FC
S31500002ED000000000000000000000000000000000EC
S31500002EE000000000000000000000000000000000DC
S31500002EF000000000000000000000000000000000CC
S31500002F0000000000000000000000000000000000BB
S31500002F100000000000000000A5190000D516000002
S31500002F20B9190000C519000099170000ED17000037
S31500002F30E116000035170000551700008117000044
S31500002F40D117000005170000191700000A09000034
S31500002F500A0900003F0B00000100020008001000F3
S30900002F600000000067
S30D00002F6448F7FF7F01000000A1
S31500002F6C102700003200840305002C011400BC025B
S31500002F7C80A903000500000051000100440019114E
S31500002F8C460000008813000088130000102700007C
S31500002F9C120000004000350025020000010200006E
S3150100A100FFFFFFFFFFFFFFFFFFFFFFFFFFFFFFFF58
S3090100A110FFFFFFFF48
S3090100A134FFFFFFFF24
S3150100A200FFFDFFFFFFFFFFFFFFFFFFFFFFFFFFFF59
S3150100A210FFFFFFFFFFFFFFFFFFFFFFFFFFFFFFFF47
S3150100A220FFFFFFFFFFFFFFFFFFFFFFFFFFFFFFFF37
S3150100A230FFFFFFFFFFFFFFFFFFFFFFFFFFFFFFFF27
S3150100A240FFFFFFFFFFFFFFFFFFFFFFFFFFFFFFFF17
S3150100A250FFFFFFFFFFFFFFFFFFFFFFFFFFFFFFFF07
S3150100A260FFFFFFFFFFFFFFFFFFFFFFFFFFFFFFFFF7
S3150100A270FFFFFFFFFFFFFFFFFFFFFFFFFFFFFFFFE7
S3150100A280F8F8FFFFFFFFFFFFFFFFFFFFFFFFFFFFE5
S3150100A290FFFFFFFFFFFFFFFFFFFFFFFFFFFFFFFFC7
S3150100A2A0FFFFFFFFFFFFFFFFFFFFFFFFFFFFFFFFB7
S3150100A2B0FFFFFFFFFFFFFFFFFFFFFFFFFFFFFFFFA7
S3150100A2C0FFFFFFFFFFFFFFFFFFFFFFFFFFFFFFFF97
S705000025B124
