S0180000417175615F4354524C5F53575F5630322E73726563D0
S31500000000B81800203D1F0000AD1D0000391F00007C
S31500000010391F0000391F0000391F0000391F00007A
S31500000020000000000000000000000000391F000072
S31500000030391F000000000000391F0000391F0000B2
S3150000004069170000D91000004D100000651100006E
S31500000050AD110000D91000004D1000006511000020
S31500000060AD110000000000000000000000000000CC
S31500000070000000000000000000000000000000007A
S31500000080000000000000000000000000000000006A
S31500000090000000000000000000000000000000005A
S315000000A0000000000000000000000000000000004A
S315000000B0000000000000000000000000000000003A
S315000000C0000000000000000000000000000000002A
S315000000D0000000000000000000000000000000001A
S315000000E0000000000000000000000000000000000A
S315000000F000000000000000000000000000000000FA
S3150000010000000000000000000000000000000000E9
S3150000011000000000000000000000000000000000D9
S3150000012000000000000000000000000000000000C9
S3150000013000000000000000000000000000000000B9
S3150000014000000000000000000000000000000000A9
S315000001500000000000000000000000000000000099
S315000001600000000000000000000000000000000089
S315000001700000000000000000000000000000000079
S315000001800000000000000000000000000000000069
S315000001900000000000000000000000000000000059
S315000001A00000000000000000000000000000000049
S315000001B00000000000000000000000000000000039
S315000001C0FFFFFFFFFFFFFFFFFFFFFFFFFFFFFFFF39
S315000001D0FFFFFFFFFFFFFFFFFFFFFFFFFFFFFFFF29
S315000001E0FFFFFFFFFFFFFFFFFFFFFFFFFFFFFFFF19
S315000001F0FFFFFFFFFFFFFFFFFFFFFFFFFFFFFFFF09
S3150000020010B5054C237833B9044B13B1044800E00C
S3150000021000BF0123237010BD28000020000000004D
S31500000220A023000008B5034B1BB10349034800E0B7
S3150000023000BF08BD000000002C000020A023000025
S3150000024006EE900A9FED0F7AF8EE666ADFED0E4A2B
S3150000025066EE876A9FED0D5A86EEA47ADFED0C7A7C
S3150000026037EE457ADFED0B5A27EE277AB6EE006AAF
S31500000270C7EE257A77EE867AFCEEE77A17EE903AA5
S3150000028098B2704700404E4500F07F450000C843D5
S3150000029000000C430000C84406EE900A9FED0F7A5A
S315000002A0F8EE666ADFED0E4A66EE876A9FED0D5A36
S315000002B086EEA47ADFED0C7A37EE457ADFED0B5A3F
S315000002C027EE277AB6EE006AC7EE257A77EE867AAB
S315000002D0FCEEE77A17EE903A98B2704700404E452A
S315000002E000F07F450000C84300007A440000C8447F
S315000002F04FF4C86303FB00F007EE100ADFED0D4A6A
S31500000300F8EEC76A9FED0C5A86EEA47ADFED0B7AFB
S3150000031037EE057ADFED0A5A27EE277AB6EE006A3F
S31500000320C7EE257A77EE867AFCEEE77A17EE903AF4
S3150000033098B2704700000C430000C84300F07F45A8
S3150000034000404E454FF4C86303FB00F007EE100A69
S31500000350DFED0D4AF8EEC76A9FED0C5A86EEA47AD9
S31500000360DFED0B7A37EE057ADFED0A5A27EE277AAC
S31500000370B6EE006AC7EE257A77EE867AFCEEE77A65
S3150000038017EE903A98B2704700007A440000C843CE
S3150000039000F07F4500404E4503795BB910B4064C2A
S315000003A0D4E90023501C43F10001C4E900015DF8C3
S315000003B0044B7047704700BF480000204EF660218E
S315000003C02DE9F04FA84AA94BADB045200E910F92EA
S315000003D010931193FFF78CFF034643200293FFF718
S315000003E087FF034650200393FFF782FF034640F240
S315000003F0B7200493FFF7A6FF034640F227100593A4
S31500000400FFF776FF034640F27F3000260693FFF79C
S315000004106FFF01238DF8286000228DF829608DF882
S315000004202A608DF82B608DF82C608DF82D6026964D
S315000004302796289629962A962B968DF82E300023F5
S315000004408B4D8C49079028468DF82F60ADF83260A9
S31500000450CDE91223ADF83460CDE91423ADF836604A
S31500000460CDE91623CDE91823CDE91A23CDE91C23BE
S31500000470CDE91E23CDE920238DF830608DF831605B
S31500000480CDE92223CDE9242301F0AEFA7A497B484F
S3150000049001F02EF87A497B4801F0C2F87A497B4888
S315000004A000F036FC28467A4901F0B2F97548B046A4
S315000004B0B146784CDFF8E4A101F07EF8D4E90023D8
S315000004C0DDE91A01161A63EB0103564573F10003C1
S315000004D080F0E6809DF82E30002B40F0E1809DF8FC
S315000004E02D303BB99DF82A3023B19DF82830002BDA
S315000004F000F0AE819DF82D308BB1D4E90023DDE903
S3150000050014674FF0000BCDE900230E99019B921B57
S3150000051063EB070391427BEB0303C0F086819DF8F2
S315000005202D3003F0FF0C83B9D4E90023DDE912670F
S31500000530CDE900230F99019B921B63EB07039142C0
S315000005407CEB030338BF8DF828C09DF82C303BB9EF
S315000005509DF82B3023B19DF82930002B00F08E81B9
S315000005609DF82C308BB1D4E90023DDE918674FF0F4
S31500000570000BCDE900231099019B921B63EB070347
S3150000058091427BEB0303C0F03D819DF82C3003F0D4
S31500000590FF0C83B9D4E90023DDE91667CDE9002312
S315000005A01199019B921B63EB070391427CEB0303BA
S315000005B038BF8DF829C04FF0000CD4E90023DDE9DF
S315000005C01C01161A344A63EB0103B2427CEB0303A7
S315000005D0C0F0F380D4E90023DDE91E0141F2893C35
S315000005E0161A63EB0103664573F100030BD39DF8FE
S315000005F02F30002B00F00281404600F0B1F9D4E91B
S315000006000023CDE91E23D4E90023DDE9200142F2CF
S31500000610117C161A63EB0103664573F1000380F043
S31500000620E780D4E90023DDE9220140F2D76C161AEF
S3150000063063EB0103664573F1000328BF012340F213
S31500000640EF2C28BF8DF83130D4E90023DDE92401F1
S31500000650161A63EB0103664573F10003FFF42EAF30
S3150000066001238DF8303029E720BF0200C0D40100F5
S3150000067070000020C42000008021000068000020D7
S31500000680FC200000940000204C210000B400002053
S31500000690E820000048000020404B4C00809698005F
S315000006A0284601F09FF801238DF82430284609A931
S315000006B001F09EF89DF82430012BF7D011210DF1A1
S315000006C03202284601F09CF814210DAA284601F0B2
S315000006D097F812210DF13602284601F091F840F6FE
S315000006E03B6E40F20157BDF83200049EBDF836104D
S315000006F0B04234BF4FF0000C4FF0010C714594BF6F
S3150000070000260126B942039F40F6B3128CBF002192
S315000007100121B8428CBF0027012790428DF899C06D
S315000007208DF89A7094BF00270127BDF834308DF8F4
S315000007309B70934294BF00220122B0F5F87F8CBFD4
S31500000740002701278DF89C70079FBB4234BF002706
S3150000075001278DF89D70069FBB428CBF002701279D
S31500000760B3F5F87F8DF89E708DF89F208CBF002220
S315000007700122059F8DF8A020029ABB428CBF002360
S31500000780012390428CBF002201228DF8A1608DF8D2
S31500000790A2108DF82A208DF82B30FFF751FD8146E7
S315000007A0BDF83400FFF778FD00238DF82E30D4E92C
S315000007B000238046CDE91A2391E69DF82F3040F2BA
S315000007C0064183F001038DF82F30D4E90023CDE9EB
S315000007D01C2335489DF82F2000F052FD9DF82F2050
S315000007E040F2017182F001022F4800F049FDF1E666
S315000007F04A46414626A800F017F912E7484600F097
S31500000800AFF8FCE68DF82CB05A46D4E900674FF4F1
S3150000081085712548CDE9166700F032FD5A464FF43A
S31500000820E061214800F02CFDAFE68DF82DB05A4668
S31500000830D4E9006740F20B111B48CDE9126700F0BE
S315000008401FFD5A4640F20271174800F019FD66E690
S3150000085001268DF82D6094ED007B324640F20B1197
S3150000086011488DED147B8DF8286000F009FD3246A5
S3150000087040F202710C4800F003FD3BE601268DF8BC
S315000008802C6094ED007B32464FF4857106488DED61
S31500000890187B8DF8296000F0F3FC32464FF4E061D6
S315000008A0014800F0EDFC5BE668000020022800D05D
S315000008B07047024B0248596800F01ABEB820000083
S315000008C06800002009280CD8DFE800F00C12192077
S315000008D0272E353C4305012300220B704A708A708F
S315000008E0CB70704700230B704B708B70CB707047CA
S315000008F0002301220B704B708B70CA707047002367
S3150000090001220B704B708A70CB7070470022012356
S315000009100A704A708B70CB707047002301220B70EF
S315000009204A708B70CB707047002201230A704B709F
S315000009308A70CB707047002301220B704A708A7050
S31500000940CB707047012300224B700A708B70CB70FE
S315000009507047002301224B700A708B70CB70704772
S315000009602A4A2DE9F84313889BB2834234D1284E94
S31500000970284DDFF8B0802B8800229BB238F8231070
S31500000980254800F07DFC2B889BB2022B3BD02B88A0
S3150000099001339BB22B80002440F205111F4FDFF874
S315000009A078902B8848469BB206EB83031A5D89B282
S315000009B082F00102013400F063FC042C02D057F8E7
S315000009C0041BEEE72B8801229BB238F8231012484D
S315000009D0BDE8F84300F054BC108010880C4E104D52
S315000009E080B206F10801A5FB0034E40804EB840399
S315000009F0A0EB430080B2FFF765FFB142A0B2A1F1C0
S31500000A000401F0D1B4E700232B80C4E75C0000208A
S31500000A10500000205E00002068000020A02000009A
S31500000A20CDCCCCCCAC20000070B53B4D84B02B783F
S31500000A300446ADF8062083B3384BA3FB0102D20867
S31500000A4090B202EB8202A1EB4201A3FB002C4FEA1B
S31500000A50DC0C1FFA8CF2A3FB0263DB080CEB8C0C9C
S31500000A6003EB8303A0EB4C00A2EB43032C4E303187
S31500000A7030303033DBB2C9B2C0B2B170012270700F
S31500000A800DF106013370274800F070F80322314655
S31500000A90244800F06BF800232B70234D2B7803F0CD
S31500000AA0FF027BB3012300211E4E8DF80F308DF817
S31500000AB00E1007E09DF80F300133DBB20A2B8DF8DC
S31500000AC00F300AD8E35C002BF4D0012230460DF13A
S31500000AD00F0100F04BF80022ECE70DF10E019AB978
S31500000AE0FE2301220F4800918DF80E3000F03EF8EB
S31500000AF0FF23012200990B488DF80E3000F036F8DE
S31500000B0000232B7004B070BD01220648009100F04E
S31500000B102DF80099E4E700BF65000020CDCCCCCCD1
S31500000B2060000020B4000020640000200379094A18
S31500000B30042B137000D070478368012B06D0022B5C
S31500000B4000D070470122044B1A707047034A137095
S31500000B50704700BF6300002064000020650000208D
S31500000B6008B5FFF72BFC002008BD00BF70B5C369B0
S31500000B70DB699C7BF4B9046AA37803F07B03A3705A
S31500000B80837803F00303D21A0B440261A278C36090
S31500000B90837842F0800203F00303022BA27003D095
S31500000BA00B780020E37070BD0B88002043F47E4371
S31500000BB0E38170BDEFF3108C012484F310881D4C83
S31500000BC025682DB94FF0400E1B4EF57086F803E0F0
S31500000BD02568013525608CF31088B3F810C093F8AA
S31500000BE00FE04FEA1C23154D1B0153FA8CFC55F8F8
S31500000BF02C3023F0011323F44043BEF1000F08BF4D
S31500000C0043F0010343F0040345F82C30EFF310855D
S31500000C10012383F31088236813B12368013B236003
S31500000C2023681BB98026044CE370E67085F31088B0
S31500000C30A1E700BF24010020000D0840000808407D
S31500000C40F0B5846A85B005460F4694466E46B4B143
S31500000C5094E80F0086E80F00EB6920461B7884F8BD
S31500000C6004C02360EB6AC4E902736B6A9847AC6AF6
S31500000C701CB196E80F0084E80F0005B0F0BD3446BD
S31500000C80EAE700BFC269937B03B9704710B4EFF37C
S31500000C901080012383F310881A490B681BB91A4C7C
S31500000CA0E3704023E3700B6801330B6080F3108818
S31500000CB0108A164C030A1B0153FA80F054F82030B0
S31500000CC0D27B23F0011323F44043002A18BF43F0DC
S31500000CD0010343F0040344F82030EFF310820123AC
S31500000CE083F310880B6813B10B68013B0B600B682C
S31500000CF01BB980200449CB70C87082F310885DF858
S31500000D00044B704724010020000D084000080840ED
S31500000D1000222DE9F04701260D460B78027003F5F7
S31500000D20800303F58C531B0203624B69C161436266
S31500000D308378896966F301038262C16283706B7886
S31500000D40044623B90222837862F3010383700126E5
S31500000D5095F90B10B84B4A0901F01F07203206FA25
S31500000D6007F7A87A43F82270BFF34F8FBFF36F8F50
S31500000D70B24A01F1C00752F827C000016FF3104CC8
S31500000D8042F827C0AE4F03EB010CC0B28CF800034B
S31500000D9047F8214095F9051028794FEA511C01F0D2
S31500000DA01F0E0CF1200C06FA0EFE43F82CE0BFF3E2
S31500000DB04F8FBFF36F8F01F1C00C52F82CE000018A
S31500000DC06FF3104E42F82CE0C0B203EB010C8CF826
S31500000DD0000347F8214095F90710A8794FEA511CFE
S31500000DE001F01F0E0CF1200C06FA0EFE43F82CE063
S31500000DF0BFF34F8FBFF36F8F01F1C00C52F82CE099
S31500000E0000016FF3104E42F82CE0C0B203EB010C68
S31500000E108CF8000347F8214095F90900297A4FEA32
S31500000E20501C00F01F0E0CF1200C06FA0EFE43F8C3
S31500000E302CE0BFF34F8FBFF36F8F00F1C00C52F859
S31500000E402CE009010344C9B26FF3104E42F82CE0BE
S31500000E5083F8001347F82040E069FFF713FFEFF32C
S31500000E60108086F310884FF00041764B2E785A6832
S31500000E70F14022EA01025A605B6880F31088002282
S31500000E8040F2F931236A9A701A715A729A72DA72BA
S31500000E905A832A7821FA02F2D60744BF4022DA742E
S31500000EA0062240F2F931EE691A772A786878D1403D
S31500000EB0AF78EA78CD0748BF4FF478414FEAC202CF
S31500000EC048BF9982032842EA071200F0B080002842
S31500000ED014BFF221E221D2B21A709971327B082A2C
S31500000EE00EBF0A22520002F002025A737278B178DB
S31500000EF0D201490101F02001D2B20A430021197240
S31500000F0096F800C0ACF10201012940F28680D2B207
S31500000F10DA717268917850785970197860F3010126
S31500000F201970D17812789974D97902F05C0201F0BF
S31500000F30A3010A43DA7100204FF0010EC4E9030051
S31500000F40C4E90500D4F81C803C4A98F905503E4F88
S31500000F5005F1C009690952F829A0890005F01F05A5
S31500000F6001F160410EFA05F501F5614160F3104AA1
S31500000F7042F829A0C1F880510D6098F90B500CF089
S31500000F80030C05F1C009690952F829A0890005F08A
S31500000F901F0501F160410EFA05F501F5614160F3A7
S31500000FA0104A42F829A0C1F880510D6098F90750FF
S31500000FB04CF0700C05F1C009690952F829A08900A6
S31500000FC005F01F0501F160410EFA05F501F56141D5
S31500000FD060F3104A42F829A0C1F880510D6098F9D3
S31500000FE0091001F1C00552F8258060F3104842F857
S31500000FF025804A099200758901F01F0102F16042BD
S315000010000EFA01F102F56142C2F88011116083F80F
S3150000101002C025816760BDE8F087FF21BCF1020FA1
S3150000102008BF42F01002D2B25970DA7183E7F2219A
S3150000103042F040024FE700BF00E100E000600040E0
S3150000104028010020004008405549435330B4EFF3CF
S315000010500383103B5BB21E4A03F1C00152F8210024
S315000010601C4C6FF3104042F8210054F82300C3696A
S315000010701B691BB103691BB130BC704703697BB99F
S31500001080D0E908240021937803F07F0343F004039A
S315000010909370C160002CEFD030BC8022FFF7D0BD2A
S315000010A0827802F003010229C1680BD0046A91F824
S315000010B000C084F803C002F003029B1A0A44C0E988
S315000010C00323D8E70C88056A44F47E44EC81F2E7F2
S315000010D0006000402801002010B582B0EFF30383C2
S315000010E0103B1E4A5BB203F1C00152F821001C4CB2
S315000010F06FF3104042F8210054F82340A27802F022
S315000011000303022B236A0CBF198A5979A3690CBF02
S31500001110C1F30801C9B2019143B9636AB3B10422AC
S31500001120204602B0BDE81040FFF78ABD02F0030278
S3150000113001A9606900F068FFD4E90521A37803F0EE
S3150000114003031A44C91AC4E9052109B102B010BD46
S31500001150636A002BFAD00122E2E700BF006000407C
S315000011602801002038B5EFF303840E4B103C64B21F
S3150000117053F82450D5E90702937803F07B03937064
S31500001180FFF780FD6B6A23B1022200212846FFF794
S3150000119057FD054BC03453F824206FF3104243F833
S315000011A0242038BD2801002000600040F8B5EFF388
S315000011B00384194B103C64B253F82450AB7803F007
S315000011C00303022B2B6A0CBF1E8A5E7919790CBFAA
S315000011D0C6F30806F6B201F03807C90604D51A7F29
S315000011E0D20758BF47F04007187900F0C7001871BA
S315000011F0E869FFF747FD6B6A23B13A463146284650
S31500001200FFF71EFD054BC03453F824206FF3104240
S3150000121043F82420F8BD00BF2801002000600040EC
S315000012200022034610461A60704700BF0B0A10B42E
S315000012301B01064C53FA81F154F821300020C3F308
S3150000124040035DF8044B1370704700BF0008084068
S31500001250090A490101F1804101F500214B6800208E
S3150000126013807047090A490123EA020C01F1804103
S315000012701A4001F5002142EA0C4200208A607047BC
S315000012800123C8B283404AB91A040B0A5B0103F171
S31500001290804303F5002300209A6070479AB2F4E772
S315000012A0090A490101F1804101F5002110B40C68D9
S315000012B002EA030C4CEA040C62EA030202EA0C029C
S315000012C000205DF8044B0A60704700BF090A490117
S315000012D001F1804101F500214B680020C3F30F4363
S315000012E013807047012310B44FEA112C4FEA4C1CAF
S315000012F00CF1804C0CF5002CDCF80440C9B203FA62
S3150000130001F18BB201EA1441C91AB1FA81F1490916
S3150000131000205DF8044B1170704700BF090A4901AF
S3150000132023EA020C01F180411A4001F5002142EA4C
S315000013300C420020CA607047012A14D04FF4803056
S315000013400B0A5B0103F1804303F5002310B4CAB214
S31500001350DC6800FA02F22243120C120400205DF847
S31500001360044BDA6070470B0A5B0103F1804303F517
S315000013700023D868C9B28A40024392B20020DA60DC
S31500001380704700BF38B50488002C4CD00021436854
S3150000139040F20245043303EBC40040F2034C40F232
S315000013A0044E0C460FE062452FD153F8042C02F090
S315000013B0B852B2F1807F14BF41F0020144F002043A
S315000013C00833834210D01A88AA42ECD153F8042C71
S315000013D0083302F0B852B2F1807F14BF41F0010128
S315000013E044F001048342EED1C943CDB2012000F09E
S315000013F079FD0E4B012093F8BB2414432C4083F84F
S31500001400BB44BDE8384000F03DBD7245D8D153F825
S31500001410042C02F0B852B2F1807F0CBF44F00404F1
S3150000142041F00401CCE7FF25E0E700BF00E0014002
S31500001430F8B50446FFF7A6FFEFF31082012383F306
S315000014401088284E33681BB92749CB704023CB70D0
S3150000145033680133336082F3108823887BB3626874
S3150000146003F1FF3E1FFA8EFE02F108011F4C01EB4D
S31500001470CE0E08E0D2B21B0113448E450A4644F84C
S3150000148023001CD008311068928810F4803F4FEA80
S315000014901223EFD0130AD2B202EB031C54F82C70BD
S315000014A01B01134420F480356FF310478E4544F832
S315000014B02C700A4644F82C5044F82300E2D1EFF38E
S315000014C01082012383F31088336813B13368013B1C
S315000014D0336033681BB980200349CB70C87082F330
S315000014E01088F8BD24010020000D084000080840BF
S315000014F008B5034B03600846FFF79AFF002008BDB6
S3150000150054524F5008B50846FFF792FF002008BD19
S3150000151070B5012684B002AB68460C4615460193A9
S31500001520ADF80060ADF80C100292FFF72BFFEFF359
S31500001530108286F310881D490B681BB940261C488B
S31500001540C370C6700B6801330B6082F31088EA0320
S315000015504FEA1423E4B219D41B01164A234442F875
S315000015602350EFF31082012383F310880B6813B125
S315000015700B68013B0B600B681BB980200C49CB70D4
S31500001580C87082F31088002004B070BD094A04EBCD
S31500001590031052F820601B016FF3104642F82060DA
S315000015A025F4803642F82060D7E700BF24010020EA
S315000015B0000D08400008084003460020D3E9022336
S315000015C053607047002800DA70474FF0010C10B4E2
S315000015D000F160430901104CC9B203F5614383F879
S315000015E000130E4B44F8202000F1C00253F82210DD
S315000015F06FF3104143F8221043099B0000F01F00CF
S3150000160003F1604303F561430CFA00F0C3F880016F
S315000016105DF8044B18607047280100200060004008
S31500001620F8B501250446087C0A4605FA00F3E3608E
S315000016301B0718BF002361604FF0000118BF237419
S31500001640374B08BF2574034450691B02A3606061D1
S31500001650D2E90635C4E90613EFF31087012383F3B5
S3150000166010884FF000402F4B167C20FA06F61869BA
S3150000167020EA060018611B6987F310884FF425409D
S31500001680D5E906ECA3684FF000471860D962D96324
S3150000169099641078117A03284FF000004FEAC1517F
S315000016A0566808BF41F48031D962E96A013E1F617C
S315000016B05F619F6158629862C3F81CE0C3F820C05E
S315000016C09E665E669863C3F8880031B995F8211066
S315000016D095F82000490741EA40314FF4AA00032655
S315000016E018640120E768DF6059631E631863517C44
S315000016F092F912002246FFF765FF224695F822105E
S3150000170095F92400FFF75EFF95F92500224695F826
S315000017102310FFF757FF044B00202360F8BD00BFDE
S3150000172090164000004008405450470070B5836949
S3150000173084B004468C46164601AD9BB193E807007B
S3150000174085E8070083F804C0E26918469E601A60BF
S3150000175063699847A3691BB195E8070083E807000A
S3150000176004B070BD2B46EDE770B5EFF30383103B75
S31500001770194A5BB203F1C00152F82100174C6FF30E
S31500001780104042F8210054F82300446894F800C041
S31500001790BCF1010F17D1D0E902560024AE60AC644B
S315000017A0EC642C6552F821504FEA531E0C4E03F0A0
S315000017B01F030CFA03F364F310450EF1600C42F8B4
S315000017C0215046F82C3043692BB1BDE87040002209
S315000017D01146FFF7ABBF70BD006000402801002036
S315000017E000E100E003461A689B8A002013807047D8
S315000017F003461B6800201B88C3F3C0330B70704779
S3150000180003461B68103133F81130002013807047EF
S3150000181043682DE9F0430C684A685E6903688D6881
S315000018201FFA84F8A3F804801FFA82F8A3F814803C
S3150000183022F0405C1FFA85F824F0405E25F0405700
S315000018402243A3F808804FEA1C4C3F0C4FEA1E487F
S3150000185012F0405FA3F80680A3F816C05F8153D14B
S31500001860CF68002F00F0AF80B7F808C01CF4006FF7
S3150000187020D0D7E90052B7F80A80A3F890C0A3F8A1
S315000018809C80B7F80C80A3F89E801FFA85F8A3F811
S315000018909480C5F30B482D0FA3F8968083F89250D9
S315000018A095B2A3F89850C2F30B45120FA3F89A50BD
S315000018B083F893201CF4007F1AD10A8AA3F890C0FB
S315000018C0A3F88020F2786AB1BEFA8EFE1A88818A61
S315000018D092B222F01F021F32A2EB0E0292B2114305
S315000018E01A808182394BC0E903340020BDE8F083B9
S315000018F0BA7CFD7C2A4383F8A620FA89A3F8A8209F
S315000019003A8AA3F8AA20D8E741F23608304FD7F82A
S315000019102090304FC9F3026C3F68C9F3021907FAE9
S315000019200CFC2D4F2CFA09FCA7FB0C7C4FEA9C1CE7
S3150000193008FB0CFC294FA7FB0C7C4FEA9C4C0CF1D6
S31500001940010CBCF1070F38BF4FF0070C12F080579F
S3150000195022D0EFF31085012383F31088204BDC6837
S3150000196024F48004DC60DB6885F3108890251D4B29
S315000019700C681D7003685FFA8CF714F0805F8D6841
S3150000198083F8DE7014BF4FF480774FF4806715F04C
S31500001990805F18BF47F0010792000ED5A20048BF2E
S315000019A047F400775FFA8CFC58BF47F40067AA003B
S315000019B083F8DFC048BF47F00207BFB25F82CF6837
S315000019C0002F7FF451AFBC4677E700BF4344415236
S315000019D000E00140B0020020D34D621083DE1B43BD
S315000019E00040084000300F402DE9F0430025CA684A
S315000019F00B884C6982610A695B02C0E9075203F1F0
S31500001A00804303F5B813036041604A798E78E57820
S31500001A10130243EA4633002D00F0DD8043F43073B1
S31500001A20022A14BF4FF0000C714A9BB208BF32F86D
S31500001A3025C083820A79CD78D20342EA45026578C9
S31500001A40267842EA4515EFF310884FF0010E8EF323
S31500001A501088684F0A88D7F80C90C2F110020EFA67
S31500001A6002F229EA0202FA60FA6888F3108847F659
S31500001A70FF5213400268ADB21380A2F810C0D581A0
S31500001A8016736379A3EB0E03B3FA83F35B0982F84B
S31500001A90D03091F90630002B21DB0A7A03F160453C
S31500001AA01201554ED2B205F5614585F80023534D16
S31500001AB046F823005A0903F1C00655F8267092002D
S31500001AC003F01F0302F160420EFA03F302F56142CE
S31500001AD06FF3104745F82670C2F88031136091F90C
S31500001AE00730002B22DB4A7A03F160411201D2B2A1
S31500001AF001F5614181F8002301213F4A3F4D42F83B
S31500001B00230003F1C0065A0955F82670920003F027
S31500001B101F0302F1604202F5614201FA03F36FF31B
S31500001B20104745F82670C2F88031136094F90630E4
S31500001B30002B22DB227A03F160411201D2B201F5B9
S31500001B40614181F8002301212B4A2C4D42F82300E4
S31500001B5003F1C0065A0955F82670920003F01F03D8
S31500001B6002F1604202F5614201FA03F36FF3104796
S31500001B7045F82670C2F88031136094F90730002BBF
S31500001B8022DB627A03F1604112011B4CD2B201F5ED
S31500001B90614181F80023194A44F8230003F1C0018A
S31500001BA052F821406FF3104442F8214001215A09AE
S31500001BB0920003F01F0302F1604202F5614201FA4E
S31500001BC003F3C2F88031136000230D4A036182607B
S31500001BD01846BDE8F0833AB943F4004343F04003A6
S31500001BE09BB29446838225E743F0400318E700BF83
S31500001BF08C230000004008402801002000600040BF
S31500001C0043444152064B074993F826001A6A51F895
S31500001C102030C2F302620449D3400B60704700BF14
S31500001C2000E001400C000020B0020020F8B54AF2A6
S31500001C30035001233749384AA1F8FE03A2F80431BC
S31500001C40B2F804319BB2002BFAD101214FF40040C7
S31500001C504FF0200E4FF0090C304C314E314D66607E
S31500001C60E66006F137662B4B2F4F06F5D8366661D0
S31500001C70A2F80011A960296093F826202760A060C9
S31500001C802061186A54F82220284DC0F30260C24031
S31500001C902A6083F813E483F8A2C093F8802492B3F1
S31500001CA000231C4981F8813481F8803481F8323070
S31500001CB091F83C301A07FBD54FF444500023154ADF
S31500001CC0088581F82A3092F83C309B06FBD5032024
S31500001CD00521114B83F81C01154B82F8261013625F
S31500001CE092F82630116A54F82330C1F30261CB40D2
S31500001CF02B6001204FF4254382F8300082F8520011
S31500001D00A2F8FE33F8BD40F2C44083F8801400F018
S31500001D1019F8C5E700E0014000C001400C000020B2
S31500001D2000127A0000700040002D3101B002002040
S31500001D3021120120704700BFA0F101000028FBD14D
S31500001D40704700BF10B54FF47A72164C164B2468D4
S31500001D504FF0000EB3FBF4FC4FF0FF3300FB01F134
S31500001D60A1FB020483427EEB040407D3B0FBFCF024
S31500001D70800880B1BDE81040FFF7DEBF4FEA8C0C4B
S31500001D80B1FBFCF1A1FB02128B427EEB020203D3F4
S31500001D9008460028EED110BD1846BDE81040FFF7F2
S31500001DA0CBBF00BFB002002000CA9A3B70B500242A
S31500001DB00A4B0B4EB3F84051ADB225FA04F3DB07DC
S31500001DC0E0B203D556F8243003B198470134102CFD
S31500001DD0F3D1024BA3F8305170BD00BF0060004044
S31500001DE0E400002030B56FF0FF0585B0032000F059
S31500001DF079F84FF0FF311F4C1F48224685640023B7
S31500001E000125CDE90111039104F1C00E32F8020F4C
S31500001E10590960B104A800EB810151F80C0C03F0DC
S31500001E201F0C05FA0CFC20EA0C0041F80C0C72455C
S31500001E3003F10103EAD10199104B0F4A0320116700
S31500001E40C3F8801202995167C3F884120399916707
S31500001E50C3F8881200F016F80023094803F1C002FF
S31500001E6034F8021F0133602B40F82210F6D105B07A
S31500001E7030BD00BF962200000080004000E100E077
S31500001E8000600040EFF31081012383F31088124BAA
S31500001E9033F8102092B22AB133F81020013A92B2E8
S31500001EA023F8102033F810309BB293B90B4A10B4C4
S31500001EB0B2F8FE330A4C9BB234F8100043F42543C3
S31500001EC023EA0003A2F8FE3381F310885DF8044B81
S31500001ED0704781F310887047A802002000E0014097
S31500001EE09823000030B4EFF31081012383F31088A8
S31500001EF00E4A32F810309BB26BB90D4C0D4DB4F84A
S31500001F00FE3335F810C09BB243EA0C0343F4254375
S31500001F109BB2A4F8FE3332F8103001339BB222F89C
S31500001F20103081F3108830BC704700BFA802002033
S31500001F3000E001409823000000BE704708B500F09D
S31500001F4003F8FEF70DFEFEE74FF47001234B244A1B
S31500001F5070B50020C3F888109A60FEF7A7FCFFF75B
S31500001F6065FE0120FEF7A2FC1E4B83F30A881E487D
S31500001F701E4A0021121A00F054F81D481D4A1E4937
S31500001F80121A00F041F81D4D1D4B5B1B002B07DD9F
S31500001F9000249E1055F8043B01349847A642F9DC0C
S31500001FA0FFF730FE0320FFF79DFF00234FF6FF707B
S31500001FB0144903F108020133092B21F81200F8D164
S31500001FC00320FFF75FFF0220FEF770FCFFF70AFF12
S31500001FD0BDE870400020FFF7ADBE00BF00ED00E099
S31500001FE000000000B802002028000020B4020020F3
S31500001FF0000000200C000020A423000004000020A4
S3150000200008000020000D08400A44431E914200D1FA
S31500002010704710B511F8014B914203F8014FF9D101
S3150000202010BD02440346934200D1704703F8011BDA
S31500002030F9E7FFFF4275696C74207769746820526E
S31500002040656E6573617320416476616E63656420B5
S31500002050466C657869626C6520536F667477617249
S3150000206065205061636B6167652076657273696F81
S315000020706E20342E302E3000342E302E30000000EC
S3150000208000000004F8B500BFF8BC08BC9E467047C7
S31500002090F8B500BFF8BC08BC9E46704705010000B5
S315000020A00401000003010000020100000204000018
S315000020B001040000000400006800002080210000E8
S315000020C058230000010000000000DFDFFFFF0000D2
S315000020D00000000000000000DC20000000010200FB
S315000020E00000DFDFFFFFFFFF00001200000000001E
S315000020F000000000000000000000001800000000C2
S315000021006400000000000000320000000002000031
S3150000211099030000000000001C21000000000000E0
S3150000212000000000000000000000000000000000A9
S315000021300000000000000000000000000000FFFF9B
S31500002140DFDF0000000000000000000002020000C7
S315000021500C010C020C030C0400000000000000003F
S315000021602D0B0000000000006C21000000010000A3
S31500002170000000200F00FFFF00000000FFFF00002E
S315000021802200000088210000040000000001000079
S31500002190040000000101000004000000020100002C
S315000021A00400000003010000040000000401000018
S315000021B00400000005010000000001000801000005
S315000021C00000010009010000040000000A010000EF
S315000021D0040000000B0100000000010000030000E5
S315000021E000000104010300000000010402030000D6
S315000021F000000000030300000400000000040000CB
S3150000220004000000010400000400000002040000B5
S3150000221004000000030400000400000004040000A1
S31500002220040000000504000004000000060400008D
S315000022300000010508040000000001050904000073
S31500002240040000000A040000040000000B04000063
S31500002250000000000C0400000080000000050000E3
S31500002260008000000105000000800000020500005B
S315000022700080000003050000008000000405000047
S315000022800400000000070000040000000107000031
S315000022900400000002070000C6008C018D018E01BB
S315000022A08F01920193019401950100000000000046
S315000022B00000000000000000000000000000000018
S315000022C00000000000000000000000000000000008
S315000022D000000000000000000000000000000000F8
S315000022E000000000000000000000000000000000E8
S315000022F000000000000000000000000000000000D8
S3150000230000000000000000000000000000000000C7
S3150000231000000000000000000000000000000000B7
S3150000232000000000000000000000000000000000A7
S315000023300000000000000000000000000000000097
S315000023400000000000000000000000000000000087
S315000023500000000000000000F1140000211200003F
S315000023600515000011150000E512000039130000E4
S315000023702D12000081120000A1120000CD120000F3
S315000023801D13000051120000651200000A0900002A
S315000023900A0900003F0B00000100020008001000BF
S309000023A00000000033
S311000023A440003500250200000102000088
S3150100A100FFFFFFFFFFFFFFFFFFFFFFFFFFFFFFFF58
S3150100A110FFFFFFFFFFFFFFFFFFFFFFFFFFFFFFFF48
S3150100A120FFFFFFFFFFFFFFFFFFFFFFFFFFFFFFFF38
S30D0100A130FFFFFFFFFFFFFFFF28
S3150100A200FFFDFFFFFFFFFFFFFFFFFFFFFFFFFFFF59
S3150100A210FFFFFFFFFFFFFFFFFFFFFFFFFFFFFFFF47
S3150100A220FFFFFFFFFFFFFFFFFFFFFFFFFFFFFFFF37
S3150100A230FFFFFFFFFFFFFFFFFFFFFFFFFFFFFFFF27
S3150100A240FFFFFFFFFFFFFFFFFFFFFFFFFFFFFFFF17
S3150100A250FFFFFFFFFFFFFFFFFFFFFFFFFFFFFFFF07
S3150100A260FFFFFFFFFFFFFFFFFFFFFFFFFFFFFFFFF7
S3150100A270FFFFFFFFFFFFFFFFFFFFFFFFFFFFFFFFE7
S3150100A280F8F8FFFFFFFFFFFFFFFFFFFFFFFFFFFFE5
S3150100A290FFFFFFFFFFFFFFFFFFFFFFFFFFFFFFFFC7
S3150100A2A0FFFFFFFFFFFFFFFFFFFFFFFFFFFFFFFFB7
S3150100A2B0FFFFFFFFFFFFFFFFFFFFFFFFFFFFFFFFA7
S3110100A2C0FFFFFFFFFFFFFFFFFFFFFFFF97
S70500001F3D9E
