S0180000417175615F4354524C5F53575F5630322E73726563D0
S315000000008819002065210000D51F0000612100002D
S3150000001061210000612100006121000061210000D2
S315000000200000000000000000000000006121000048
S315000000306121000000000000612100006121000034
S315000000409D190000F51200006512000085130000DE
S31500000050D5130000F512000065120000851300009C
S31500000060D51300002D1A000000000000000000005B
S31500000070000000000000000000000000000000007A
S31500000080000000000000000000000000000000006A
S31500000090000000000000000000000000000000005A
S315000000A0000000000000000000000000000000004A
S315000000B0000000000000000000000000000000003A
S315000000C0000000000000000000000000000000002A
S315000000D0000000000000000000000000000000001A
S315000000E0000000000000000000000000000000000A
S315000000F000000000000000000000000000000000FA
S3150000010000000000000000000000000000000000E9
S3150000011000000000000000000000000000000000D9
S3150000012000000000000000000000000000000000C9
S3150000013000000000000000000000000000000000B9
S3150000014000000000000000000000000000000000A9
S315000001500000000000000000000000000000000099
S315000001600000000000000000000000000000000089
S315000001700000000000000000000000000000000079
S315000001800000000000000000000000000000000069
S315000001900000000000000000000000000000000059
S315000001A00000000000000000000000000000000049
S315000001B00000000000000000000000000000000039
S315000001C0FFFFFFFFFFFFFFFFFFFFFFFFFFFFFFFF39
S315000001D0FFFFFFFFFFFFFFFFFFFFFFFFFFFFFFFF29
S315000001E0FFFFFFFFFFFFFFFFFFFFFFFFFFFFFFFF19
S315000001F0FFFFFFFFFFFFFFFFFFFFFFFFFFFFFFFF09
S3150000020010B5054C237833B9044B13B1044800E00C
S3150000021000BF0123237010BD58000020000000001D
S31500000220CC27000008B5034B1BB10349034800E087
S3150000023000BF08BD000000005C000020CC270000C5
S31500000240F8B50446DFF8E4C02D4A9CF8003017687C
S315000002502C4907FB03F3A1FB03232B4E2B485B0919
S315000002603588008823609CF80030294AC3F164036E
S3150000027007FB03F3A1FB03C312785B096360C2F1BA
S31500000280640307FB03F307FB02F2A1FB0272A1FB67
S31500000290031352095B09401BA260E36080B200F0C1
S315000002A09FF81C4A3388208210881B4DC01A80B2E2
S315000002B000F096F803461949328808886382801A46
S315000002C080B200F08DF8034615492A880888A38273
S315000002D0801A80B200F0AEF8034612492A880888D0
S315000002E0E382801A80B200F07BF803460E492A8822
S315000002F008882383801A80B200F072F86083F8BD04
S31500000300100000201F85EB511A000020200000205D
S31500000310040000201C000020080000201800002017
S315000003200E0000200A000020060000201E0000200B
S3150000033006EE900A9FED0F7AF8EE666ADFED0E4A3A
S3150000034066EE876A9FED0D5A86EEA47ADFED0C7A8B
S3150000035037EE457ADFED0B5A27EE277AB6EE006ABE
S31500000360C7EE257A77EE867AFCEEE77A17EE903AB4
S3150000037098B2704700404E4500F07F450000C843E4
S3150000038000000C430000C84406EE900A9FED0F7A69
S31500000390F8EE666ADFED0E4A66EE876A9FED0D5A45
S315000003A086EEA47ADFED0C7A37EE457ADFED0B5A4E
S315000003B027EE277AB6EE006AC7EE257A77EE867ABA
S315000003C0FCEEE77A17EE903A98B2704700404E4539
S315000003D000F07F450000C84300007A440000C8448E
S315000003E04FF4C86303FB00F007EE100ADFED0D4A79
S315000003F0F8EEC76A9FED0C5A86EEA47ADFED0B7A0B
S3150000040037EE057ADFED0A5A27EE277AB6EE006A4E
S31500000410C7EE257A77EE867AFCEEE77A17EE903A03
S3150000042098B2704700000C430000C84300F07F45B7
S3150000043000404E454FF4C86303FB00F007EE100A78
S31500000440DFED0D4AF8EEC76A9FED0C5A86EEA47AE8
S31500000450DFED0B7A37EE057ADFED0A5A27EE277ABB
S31500000460B6EE006AC7EE257A77EE867AFCEEE77A74
S3150000047017EE903A98B2704700007A440000C843DD
S3150000048000F07F4500404E450023F0B505463A484A
S3150000049083B0ADF80230ADF80430ADF8063004464E
S315000004A00E46174601F008FB01238DF80030694619
S315000004B0204601F007FB9DF80030012BF7D02F4BAB
S315000004C00DF1020293F900102B4801F003FB2C4BAF
S315000004D001AA93F90010284801F0FCFA294B0DF106
S315000004E0060293F90010244801F0F4FAAA8ABDF82E
S315000004F002006B8A6C8BBDF8041082428CBF00220E
S315000005000122834234BF002301238C428CBF002486
S315000005100124F4712C8B73708C4234BF00240124A7
S31500000520194BB2701A88194BB471BDF806401B8876
S31500000530A2428CBF00220122A34234BF0023012322
S31500000540B372EB8AF2722A8A8B4234BF00230123EC
S31500000550824234BF002201220D490E4C22700B70DC
S31500000560FFF7E6FE0346BDF80400BB80FFF70CFF6D
S31500000570F88003B0F0BD00BF100100201F0000206E
S315000005800C00002028000020C4220000C622000023
S315000005909A0000209B0000202DE9F8495D4D044695
S315000005A02B781BB95C4B1B78002B70D12B7883B151
S315000005B04FF0000859495A4A2368D2E90067D1E941
S315000005C000BCB6EB0B0067EB0C01834278EB010332
S315000005D078D32B7803F0FF057BB9514A514B6668F7
S315000005E0D2E90001D3E90078C21B61EB0803964209
S315000005F075EB03033CBF4C4B1D704C4D2B7813B968
S315000006004B4B1B7843BB2B7883B14FF0000849490D
S31500000610434AA368D2E90067D1E900BCB6EB0B00F8
S3150000062067EB0C01834278EB01035FD32B7803F071
S31500000630FF057BB93A4A404BE468D2E90001D3E9A9
S315000006400067821B61EB0703944275EB03033CBF13
S315000006503A4B1D70BDE8F889384B1A78002AD2D17A
S315000006600126DFF8BCC02E709CED007B314F324670
S315000006704FF48571324887ED007B1E7000F016FF3F
S3150000068032464FF4E0612E4800F010FFBBE7264BE0
S315000006901A78002A8AD10126DFF884C02E709CEDD4
S315000006A0007B1E4F324640F20B11254887ED007B3A
S315000006B01E7000F0FBFE324640F20271204800F048
S315000006C0F5FE73E7174B85F80080D2E90001424634
S315000006D0C3E9000140F20B11194800F0E7FE42465B
S315000006E040F20271164800F0E1FE72E7124B85F8FF
S315000006F00080D2E900014246C3E900014FF485714A
S315000007000F4800F0D3FE42464FF4E0610C4800F07B
S31500000710CDFE8BE7990000209B0000209000002072
S31500000720A0000020800000209D00002098000020EE
S315000007309A00002088000020780000209C000020FD
S315000007400801002003795BB910B4064CD4E90023F4
S31500000750501C43F10001C4E900015DF8044B7047E9
S31500000760704700BFA00000202DE9804897B00FA871
S31500000770FFF766FD0025002200234FF0010CDFF88D
S3150000078068914E494E4808950995ADF828500B9545
S315000007900C950D950E958DF806C08DF80750CDE990
S315000007A00223CDE90423CDE9062301F0CDF945491D
S315000007B0484600F0B3FF4449444801F069F844490B
S315000007C0444800F09BFB44493D4801F043FA3F484A
S315000007D0424C434E434FDFF81481DFF814A101F079
S315000007E001F8D4E90001DDE902BCB0EB0B0261EBD4
S315000007F00C0331688A4273F1000302D29DF8063079
S3150000080053B108AA0BA90FA8FFF73EFE8DF80650B4
S31500000810D4E90023CDE902230FA8FFF7BDFED4E9F2
S315000008200001DDE904BCB0EB0B0261EB0C03396897
S31500000830914275EB030320D3D4E90001DDE906BC40
S31500000840B0EB0B0261EB0C03D8F80010914275EB8C
S3150000085003030BD29DF8073053B3BDF8260080B2D0
S3150000086000F0A2F8D4E90023CDE906239AF8003077
S31500000870002BB6D000F014FAB3E79DF8073040F22B
S31500000880064183F001038DF80730D4E90023CDE952
S31500000890042348469DF8072000F008FE9DF807202F
S315000008A040F20171484682F0010200F0FFFDC3E705
S315000008B0BDF8240080B200F077F8D3E7F0240000FA
S315000008C010010020AC25000028250000340100207E
S315000008D0782500005401002014250000A000002007
S315000008E00000002024000020080100201400002041
S315000008F0BA000020022800D07047024B024859680F
S3150000090000F00CBFE42400000801002009280CD8E0
S31500000910DFE800F00C121920272E353C4305012391
S3150000092000220B704A708A70CB70704700230B70E0
S315000009304B708B70CB707047002301220B704B708D
S315000009408B70CA707047002301220B704B708A703F
S31500000950CB707047002201230A704A708B70CB70EF
S315000009607047002301220B704A708B70CB70704762
S31500000970002201230A704B708A70CB7070470023E7
S3150000098001220B704A708A70CB70704701230022D7
S315000009904B700A708B70CB707047002301224B702E
S315000009A00A708B70CB7070472A4A2DE9F84313887A
S315000009B09BB2834234D1284E284DDFF8B0802B8875
S315000009C000229BB238F82310254800F06FFD2B88D3
S315000009D09BB2022B3BD02B8801339BB22B80002489
S315000009E040F205111F4FDFF878902B8848469BB2DE
S315000009F006EB83031A5D89B282F00102013400F02E
S31500000A0055FD042C02D057F8041BEEE72B88012273
S31500000A109BB238F823101248BDE8F84300F046BDF3
S31500000A20108010880C4E104D80B206F10801A5FB0F
S31500000A300034E40804EB8403A0EB430080B2FFF724
S31500000A4065FFB142A0B2A1F10401F0D1B4E70023E1
S31500000A502B80C4E7B4000020A8000020B6000020C8
S31500000A6008010020CC220000CDCCCCCCD82200003E
S31500000A7099B1FF2200EB010C114630B4084D094C28
S31500000A8010F8013B5340EA5C604582EA0102E15CF2
S31500000A90F6D130BC42EA012070474FF6FF7070472E
S31500000AA0E4220000E423000070B50446104DA1B214
S31500000AB02846FFF7DDFF034620265FFA83FE04F192
S31500000AC0010C2946A21CC3F307230A4805F804E0D3
S31500000AD005F80C3000F040F932460021284601F0B6
S31500000AE0B4FB3246BDE870400021034801F0ADBBBF
S31500000AF0E400002084010020C40000202DE9F84312
S31500000B00DFF8CC8098F8021098F8034098F8042093
S31500000B1098F8053044EA012443EA02235E1E1F4684
S31500000B200FFA83F9B3B27C2B2AD8E219013A92B2B2
S31500000B30022A254D35D807222A7098F801204FEA57
S31500000B404903DBB2D2B26A70AB70BFB303234FEA7C
S31500000B50470C1E499C4431F81420581CC2F3072246
S31500000B60EA5431F8142002330134D2B263452A54D0
S31500000B70A4B2F0D170000530BDE8F843FFF794BF8A
S31500000B800722032098F801300F4D43F080032A70A6
S31500000B906B70A870FFF788FFE219013A92B2022A39
S31500000BA0C9D90721022298F80130032043F08003B7
S31500000BB029706B70AA70FFF777FFBCE70320BDE8CA
S31500000BC0F843FFF771BF00BFE4000020C00000201B
S31500000BD0C40000202DE9F843DFF8C08098F8021021
S31500000BE098F8034098F8042098F8053044EA012460
S31500000BF043EA02235E1E1F460FFA83F9B3B27C2B2B
S31500000C0036D8244DE219013A92B2012A0BD90721AE
S31500000C10022298F80130032043F0800329706B709C
S31500000C20AA70FFF741FF07222A7098F801204FEAC1
S31500000C304903DBB2D2B26A70AB7037B303234FEA13
S31500000C40470C15499C4431F81420581CC2F307225E
S31500000C50EA5431F8142002330134D2B263452A54DF
S31500000C60A4B2F0D170000530BDE8F843FFF71CBF11
S31500000C700320072298F80130064D43F080032A70BE
S31500000C806B70A870FFF710FFBCE70320BDE8F843C0
S31500000C90FFF70ABFE4000020BC000020C4000020CB
S31500000CA038B51A4D1A4C29882046023989B2FFF701
S31500000CB0DFFE2B889BB2E25C2B889BB2013BE35C98
S31500000CC043EA0223984200D038BD2378072BDAB2D4
S31500000CD0FAD161780429CBB210D0102BF4D0032BB3
S31500000CE010D0012561780B4B41F080011A705970C4
S31500000CF09D700320BDE83840FFF7D6BEBDE83840FA
S31500000D00FFF7FCBEBDE83840FFF764BFB80000201F
S31500000D10C4000020E40000200379094A042B137064
S31500000D2000D070478368012B06D0022B00D0704795
S31500000D300122044B1A707047034A1370704700BFB4
S31500000D4004010020050100200601002008B5FFF778
S31500000D500BFD002008BD00BF70B5C369DB699C7B35
S31500000D60F4B9046AA37803F07B03A370837803F0D5
S31500000D700303D21A0B440261A278C360837842F05F
S31500000D80800203F00303022BA27003D00B7800202D
S31500000D90E37070BD0B88002043F47E43E38170BD91
S31500000DA0EFF3108C012484F310881D4C25682DB9AF
S31500000DB04FF0400E1B4EF57086F803E025680135AE
S31500000DC025608CF31088B3F810C093F80FE04FEA53
S31500000DD01C23154D1B0153FA8CFC55F82C3023F0BF
S31500000DE0011323F44043BEF1000F08BF43F0010393
S31500000DF043F0040345F82C30EFF31085012383F309
S31500000E001088236813B12368013B236023681BB94C
S31500000E108026044CE370E67085F31088A1E700BFD6
S31500000E20F4010020000D084000080840F0B5846A6F
S31500000E3085B005460F4694466E46B4B194E80F0059
S31500000E4086E80F00EB6920461B7884F804C023600F
S31500000E50EB6AC4E902736B6A9847AC6A1CB196E800
S31500000E600F0084E80F0005B0F0BD3446EAE700BF86
S31500000E70C269937B03B9704710B4EFF31080012366
S31500000E8083F310881A490B681BB91A4CE370402388
S31500000E90E3700B6801330B6080F31088108A164CE0
S31500000EA0030A1B0153FA80F054F82030D27B23F05A
S31500000EB0011323F44043002A18BF43F0010343F013
S31500000EC0040344F82030EFF31082012383F31088E3
S31500000ED00B6813B10B68013B0B600B681BB98020D4
S31500000EE00449CB70C87082F310885DF8044B7047D4
S31500000EF0F4010020000D0840000808400022F8B563
S31500000F0001260D460B78027003F5800303F58C531A
S31500000F101B0203624B69C16143628378896966F388
S31500000F2001038262C16283706B78044623B9022290
S31500000F30837862F301038370012695F90B10C44A86
S31500000F404B0901F01F07203306FA07F7A87A42F883
S31500000F502370BFF34F8FBFF36F8FBE4B01F1C007F6
S31500000F6053F827C06FF3104C43F827C053F8277087
S31500000F70B94F000102EB010CC0B28CF8000347F830
S31500000F80214095F9051028794FEA511C01F01F0EF2
S31500000F900CF1200C06FA0EFE42F82CE0BFF34F8F40
S31500000FA0BFF36F8F01F1C00C53F82CE06FF3104EB6
S31500000FB043F82CE053F82CC0000102EB010CC0B240
S31500000FC08CF8000347F8214095F90710A8794FEAF5
S31500000FD0511C01F01F0E0CF1200C06FA0EFE42F811
S31500000FE02CE0BFF34F8FBFF36F8F01F1C00C53F8A6
S31500000FF02CE06FF3104E43F82CE053F82CC00001A0
S3150000100002EB010CC0B28CF8000347F8214095F9B9
S315000010100910287A4FEA511C01F01F0E0CF1200C22
S3150000102006FA0EFE42F82CE0BFF34F8FBFF36F8F28
S3150000103001F1C00C53F82CE06FF3104E43F82CE08E
S3150000104053F82C300301DBB20A4482F8003347F828
S315000010502140E069FFF70CFFEFF3108086F310885C
S315000010604FF000417D4B2E785A68F14022EA01028A
S315000010705A605B6880F31088002240F2F931236AD7
S3150000108040F2F9309A701A715A729A72DA725A8369
S315000010902A7821FA02F2D60744BF4022DA740622E1
S315000010A0E9691A772A786E78D040AF78EA78C5076A
S315000010B048BF4FF478404FEAC20248BF9882032ED9
S315000010C042EA071200F0BF80002E14BFF220E22091
S315000010D0D2B21A7098710A7B082A0EBF0A225200F1
S315000010E002F002025A734A788878D201400100F071
S315000010F02000D2B20243002018720D78A81E0128E3
S3150000110040F29880D2B2DA714A6890785678587070
S31500001110187866F301001870D07812789874D87928
S3150000112002F05C0200F0A3000243DA710020E269DB
S315000011302061A061E060606192F90560454B06F1AF
S31500001140C00253F8227060F3104743F8227053F838
S315000011502220BFF35F8F4FF0010E7209920006F056
S315000011601F0602F1604202F561420EFA06F6C2F867
S3150000117080611660E26992F90B6006F1C00253F8CD
S31500001180227060F3104743F8227053F82220BFF311
S315000011905F8F7209920006F01F0602F160420EFA96
S315000011A006F602F56142C2F880611660E26992F9BC
S315000011B007C00CF1C00253F8226060F3104643F8F2
S315000011C0226053F82220BFF35F8F4FEA5C12920031
S315000011D00CF01F0C02F160420EFA0CF602F56142A9
S315000011E0C2F880611660E26992F9092002F1C00630
S315000011F053F8267060F3104743F8267053F82630EC
S31500001200BFF35F8F53099B0002F01F0203F1604397
S315000012100EFA02F203F56143C3F880211A60236ACD
S3150000122005F0030545F070054A899D700C4B228137
S315000012306360F8BDFF20022D08BF42F01002D2B253
S315000012405870DA7172E7F22042F0400240E700BFC0
S3150000125000E100E000600040F80100200040084086
S315000012605549435330B4EFF30383103B1F4A5BB237
S3150000127003F1C00152F821006FF3104042F821003B
S3150000128052F821201A4A52F82300C3691B691BB180
S3150000129003691BB130BC704703697BB9D0E90824E8
S315000012A00021937803F07F0343F004039370C16039
S315000012B0002CEFD030BC8022FFF7B8BD827802F058
S315000012C003010229C1680BD0046A91F800C084F8B2
S315000012D003C002F003029B1A0A44C0E90323D8E7BD
S315000012E00C88056A44F47E44EC81F2E70060004015
S315000012F0F801002010B582B0EFF30383103B1F4ABC
S315000013005BB203F1C00152F821006FF3104042F8BE
S31500001310210052F821201A4A52F82340A27802F0FE
S315000013200303022B236A0CBF198A5979A3690CBFE0
S31500001330C1F30801C9B2019143B9636AB3B104228A
S31500001340204602B0BDE81040FFF770BD02F0030270
S3150000135001A9606900F06CFFD4E90521A37803F0C8
S3150000136003031A44C91AC4E9052109B102B010BD24
S31500001370636A002BFAD00122E2E700BF006000405A
S31500001380F801002038B5EFF30383104A103B5CB236
S3150000139052F82450D5E90702937803F07B03937043
S315000013A0FFF766FD6B6A23B1022200212846FFF78C
S315000013B03DFD074A04F1C00352F823106FF31041B4
S315000013C042F8231052F8233038BD00BFF801002040
S315000013D000600040F8B5EFF303831A4A103B5CB295
S315000013E052F82450AB7803F00303022B2B6A0CBF90
S315000013F01E8A5E7919790CBFC6F30806F6B201F0AB
S315000014003807C90604D51A7FD20758BF47F04007E8
S31500001410187900F0C7001871E869FFF729FD6B6AB3
S3150000142023B13A4631462846FFF700FD064A04F145
S31500001430C00352F823106FF3104142F8231052F8FC
S315000014402330F8BDF801002000600040002203466A
S3150000145010461A60704700BF0B0A10B41B01064CF9
S3150000146053FA81F154F821300020C3F340035DF8AC
S31500001470044B1370704700BF00080840090A490171
S3150000148001F1804101F500214B680020138070476F
S31500001490090A490123EA020C01F180411A4001F5CB
S315000014A0002142EA0C4200208A6070470123C8B23C
S315000014B083404AB91A040B0A5B0103F1804303F522
S315000014C0002300209A6070479AB2F4E7090A49019E
S315000014D001F1804101F5002110B40C6802EA030C09
S315000014E04CEA040C62EA030202EA0C0200205DF8F0
S315000014F0044B0A60704700BF090A490101F18041A7
S3150000150001F500214B680020C3F30F431380704799
S31500001510012310B44FEA112C4FEA4C1C0CF1804CFD
S315000015200CF5002CDCF80440C9B203FA01F18BB2C9
S3150000153001EA1441C91AB1FA81F1490900205DF89E
S31500001540044B1170704700BF090A490123EA020CD7
S3150000155001F180411A4001F5002142EA0C420020C7
S31500001560CA607047012A14D04FF480300B0A5B0121
S3150000157003F1804303F5002310B4CAB2DC6800FA15
S3150000158002F22243120C120400205DF8044BDA60CA
S3150000159070470B0A5B0103F1804303F50023D8680B
S315000015A0C9B28A40024392B20020DA60704700BF97
S315000015B038B50488002C4CD00021436840F202451F
S315000015C0043303EBC40040F2034C40F2044E0C46D5
S315000015D00FE062452FD153F8042C02F0B852B2F155
S315000015E0807F14BF41F0020144F0020408338342B5
S315000015F010D01A88AA42ECD153F8042C083302F012
S31500001600B852B2F1807F14BF41F0010144F00104E9
S315000016108342EED1C943CDB2012000F077FD0E4BD7
S31500001620012093F8BB2414432C4083F8BB44BDE847
S31500001630384000F03BBD7245D8D153F8042C02F077
S31500001640B852B2F1807F0CBF44F0040441F00401AB
S31500001650CCE7FF25E0E700BF00E00140F8B504460F
S31500001660FFF7A6FFEFF31082012383F31088284EBD
S3150000167033681BB92749CB704023CB7033680133DD
S31500001680336082F3108823887BB3626803F1FF3EE0
S315000016901FFA8EFE02F108011F4C01EBCE0E08E088
S315000016A0D2B21B0113448E450A4644F823001CD0CF
S315000016B008311068928810F4803F4FEA1223EFD069
S315000016C0130AD2B202EB031C54F82C701B0113440C
S315000016D020F480356FF310478E4544F82C700A4687
S315000016E044F82C5044F82300E2D1EFF31082012392
S315000016F083F31088336813B13368013B3360336872
S315000017001BB980200349CB70C87082F31088F8BDDE
S31500001710F4010020000D08400008084008B5034BFE
S3150000172003600846FFF79AFF002008BD54524F5049
S3150000173008B50846FFF792FF002008BD70B50126E0
S3150000174084B002AB68460C4615460193ADF80060BE
S31500001750ADF80C100292FFF72BFFEFF3108286F321
S3150000176010881D490B681BB940261C48C370C670FB
S315000017700B6801330B6082F31088EA034FEA1423E7
S31500001780E4B219D41B01164A234442F82350EFF35E
S315000017901082012383F310880B6813B10B68013B99
S315000017A00B600B681BB980200C49CB70C87082F3A4
S315000017B01088002004B070BD094A04EB031052F8EB
S315000017C020601B016FF3104642F8206025F4803636
S315000017D042F82060D7E700BFF4010020000D084062
S315000017E00008084003460020D3E9022353607047EF
S315000017F070B5836984B004468C46164601AD9BB12C
S3150000180093E8070085E8070083F804C0E2691846F4
S315000018109E601A6063699847A3691BB195E8070043
S3150000182083E8070004B070BD2B46EDE7002800DA18
S31500001830704710B400F160430901134CC9B203F5B7
S31500001840614383F80013114B00F1C00144F82020D6
S3150000185053F821206FF3104243F8212053F821302A
S31500001860BFF35F8F012243099B0000F01F0003F1C5
S31500001870604303F5614302FA00F0C3F88001186083
S315000018805DF8044B704700BFF8010020006000407F
S31500001890F8B501250446087C0A4605FA00F3E3601C
S315000018A01B0718BF002361604FF0000118BF2374A7
S315000018B0374B08BF2574034450691B02A36060615F
S315000018C0D2E90635C4E90613EFF31087012383F343
S315000018D010884FF000402F4B167C20FA06F6186948
S315000018E020EA060018611B6987F310884FF425402B
S315000018F0D5E906ECA3684FF000471860D962D963B2
S3150000190099641078117A03284FF000004FEAC1510C
S31500001910566808BF41F48031D962E96A013E1F6109
S315000019205F619F6158629862C3F81CE0C3F820C0EB
S315000019309E665E669863C3F8880031B995F82110F3
S3150000194095F82000490741EA40314FF4AA000326E2
S3150000195018640120E768DF6059631E631863517CD1
S3150000196092F912002246FFF761FF224695F82210EF
S3150000197095F92400FFF75AFF95F92500224695F8B8
S315000019802310FFF753FF044B00202360F8BD00BF70
S3150000199090164000004008405450470070B5EFF3E1
S315000019A00383103B1E495BB203F1C00C51F82C00B7
S315000019B09A006FF3104002F1804241F82C0002F5C4
S315000019C0C042D2F80003174850F82300446894F840
S315000019D000E0BEF1010F08D043692BB1BDE87040AD
S315000019E000221146FFF704BF70BD0024D0E902565D
S315000019F0AE60AC64EC642C6551F82C5064F3104571
S31500001A0041F82C50D2F80023BFF35F8F06495A09DC
S31500001A1003F01F030EFA03F3603241F82230DBE7CE
S31500001A2000600040F801002000E100E0F0B585B05C
S31500001A30EFF30383103B1E4A5BB203F1C00152F879
S31500001A4021006FF3104042F8210052F82120194A74
S31500001A5052F82340D4E901120978137A0129DBB23E
S31500001A6004D1F42103F0F003117213722769B7B1A0
S31500001A70656901AECDB195E8070086E807009B06CB
S31500001A8044BF00232B71A36928462B60B8476369BE
S31500001A901BB196E8070083E80700A268137ADBB259
S31500001AA003F00F03137205B0F0BD3546E7E700BF3C
S31500001AB000600040F801002003461A689B8A002057
S31500001AC01380704703461B6800201B88C3F3C0338E
S31500001AD00B70704703461B68103133F81130002035
S31500001AE013807047002800DA704710B400F1604395
S31500001AF00901134CC9B203F5614383F80013114B76
S31500001B0000F1C00144F8202053F821206FF3104261
S31500001B1043F8212053F82130BFF35F8F0122430998
S31500001B209B0000F01F0003F1604303F5614302FAD6
S31500001B3000F0C3F8800118605DF8044B704700BFE1
S31500001B40F8010020006000402DE9F0410027CA6836
S31500001B500B884E6982610A695B02C0E9077203F16C
S31500001B60804303F5B81303604160054648790C4687
S31500001B70F2788978030243EA4133002A58D043F4C5
S31500001B803073022814BF00202F499BB208BF31F8DA
S31500001B902200AB822279E178D20342EA41027178CF
S31500001BA096F800C042EA4112EFF31088012181F352
S31500001BB01088B4F800E0254FCEF1100E01FA0EF1B0
S31500001BC0D7F80CE02EEA0101F960F96888F310886D
S31500001BD047F6FF510B40296892B20B800882CA81F2
S31500001BE081F80CC073792A46A3F10103B3FA83F393
S31500001BF05B0981F8D030217A94F90600FFF772FF6D
S31500001C002A46617A94F90700FFF76CFF2A46317A73
S31500001C1096F90600FFF766FF96F907002A46717ADD
S31500001C20FFF760FF00200A4B2861AB60BDE8F0813A
S31500001C3030B943F4004343F040039BB2AB82A9E7BB
S31500001C4043F040039DE700BFB8270000004008406E
S31500001C504344415243682DE9F0430C684A685E6983
S31500001C6003688D681FFA84F8A3F804801FFA82F8C7
S31500001C70A3F8148022F0405C1FFA85F824F0405E39
S31500001C8025F040572243A3F808804FEA1C4C3F0C2E
S31500001C904FEA1E4812F0405FA3F80680A3F816C06C
S31500001CA05F8153D1CF68002F00F0AF80B7F808C02E
S31500001CB01CF4006F20D0D7E90052B7F80A80A3F8C9
S31500001CC090C0A3F89C80B7F80C80A3F89E801FFAFA
S31500001CD085F8A3F89480C5F30B482D0FA3F89680DA
S31500001CE083F8925095B2A3F89850C2F30B45120FA1
S31500001CF0A3F89A5083F893201CF4007F1AD10A8A1D
S31500001D00A3F890C0A3F88020F2786AB1BEFA8EFEDE
S31500001D101A88818A92B222F01F021F32A2EB0E02AB
S31500001D2092B211431A808182394BC0E903340020F4
S31500001D30BDE8F083BA7CFD7C2A4383F8A620FA89A5
S31500001D40A3F8A8203A8AA3F8AA20D8E741F23608D1
S31500001D50304FD7F82090304FC9F3026C3F68C9F373
S31500001D60021907FA0CFC2D4F2CFA09FCA7FB0C7C78
S31500001D704FEA9C1C08FB0CFC294FA7FB0C7C4FEA86
S31500001D809C4C0CF1010CBCF1070F38BF4FF0070C4F
S31500001D9012F0805722D0EFF31085012383F31088C9
S31500001DA0204BDC6824F48004DC60DB6885F3108853
S31500001DB090251D4B0C681D7003685FFA8CF714F0B4
S31500001DC0805F8D6883F8DE7014BF4FF480774FF420
S31500001DD0806715F0805F18BF47F0010792000ED5A7
S31500001DE0A20048BF47F400775FFA8CFC58BF47F45F
S31500001DF00067AA0083F8DFC048BF47F00207BFB2FA
S31500001E005F82CF68002F7FF451AFBC4677E700BFF3
S31500001E104344415200E0014080030020D34D62104C
S31500001E2083DE1B430040084000300F40064B074945
S31500001E3093F826001A6A51F82030C2F30262044968
S31500001E40D3400B60704700BF00E00140380000201F
S31500001E5080030020F8B54AF2035001233749384A77
S31500001E60A1F8FE03A2F80431B2F804319BB2002BAC
S31500001E70FAD101214FF400404FF0200E4FF0090C2B
S31500001E80304C314E314D6660E66006F137662B4BBD
S31500001E902F4F06F5D8366661A2F80011A9602960B1
S31500001EA093F826202760A0602061186A54F8222043
S31500001EB0284DC0F30260C2402A6083F813E483F819
S31500001EC0A2C093F8802492B300231C4981F8813480
S31500001ED081F8803481F8323091F83C301A07FBD50E
S31500001EE04FF444500023154A088581F82A3092F8A9
S31500001EF03C309B06FBD503200523114981F81C01C4
S31500001F0015490120116282F8263092F82630116AAE
S31500001F1054F82330C1F30261CB402B604FF42543C4
S31500001F2082F8300082F85200A2F8FE33F8BD40F283
S31500001F30C44083F8801400F019F8C5E700E00140BA
S31500001F4000C001403800002000127A0000700040F6
S31500001F50002D31018003002021120120704700BFAF
S31500001F60A0F101000028FBD1704700BF10B54FF467
S31500001F707A72164C164B24684FF0000EB3FBF4FC35
S31500001F804FF0FF3300FB01F1A1FB020483427EEB1D
S31500001F90040407D3B0FBFCF0800880B1BDE8104014
S31500001FA0FFF7DEBF4FEA8C0CB1FBFCF1A1FB02127E
S31500001FB08B427EEB020203D308460028EED110BD09
S31500001FC01846BDE81040FFF7CBBF00BF80030020D6
S31500001FD000CA9A3B70B500240A4B0B4EB3F8405129
S31500001FE0ADB225FA04F3DB07E0B203D556F8243088
S31500001FF003B198470134102CF3D1024BA3F83051AA
S3150000200070BD00BF00600040B401002030B56FF025
S31500002010FF0585B0032000F079F84FF0FF311F4C23
S315000020201F482246856400230125CDE9011103914D
S3150000203004F1C00E32F8020F590960B104A800EB92
S31500002040810151F80C0C03F01F0C05FA0CFC20EA78
S315000020500C0041F80C0C724503F10103EAD1019919
S31500002060104B0F4A03201167C3F88012029951677B
S31500002070C3F8841203999167C3F8881200F016F822
S315000020800023094803F1C00234F8021F0133602B14
S3150000209040F82210F6D105B030BD00BFC2260000C0
S315000020A00080004000E100E000600040EFF3108196
S315000020B0012383F31088124B33F8102092B22AB111
S315000020C033F81020013A92B223F8102033F810307A
S315000020D09BB293B90B4A10B4B2F8FE330A4C9BB2CA
S315000020E034F8100043F4254323EA0003A2F8FE3334
S315000020F081F310885DF8044B704781F310887047B0
S315000021007803002000E00140C427000030B4EFF35C
S315000021101081012383F310880E4A32F810309BB2E7
S315000021206BB90D4C0D4DB4F8FE3335F810C09BB2AB
S3150000213043EA0C0343F425439BB2A4F8FE3332F87A
S31500002140103001339BB222F8103081F3108830BC76
S31500002150704700BF7803002000E00140C42700005C
S3150000216000BE704708B500F003F8FEF7EFFDFEE786
S315000021704FF4700270B5244B244CC3F8882000201D
S315000021809C60FEF7B7FBFFF765FE0120FEF7B2FB8A
S315000021902368A3F5B05383F30A881D481D4A00211E
S315000021A0121A00F052F81C481C4A1D49121A00F077
S315000021B03FF81C4D1C4B5B1B002B07DD00249E10BB
S315000021C055F8043B01349847A642F9DCFFF72EFE8A
S315000021D00320FFF79BFF00234FF6FF70134903F11F
S315000021E008020133092B21F81200F8D10320FFF76A
S315000021F05DFF0220FEF77EFBFFF708FFBDE870409B
S315000022000020FFF7ABBE00BF00ED00E000000000BD
S315000022105800002084030020000000203800002021
S31500002220D02700003000002034000020000D0840B8
S315000022300A44431E914200D1704710B511F8014B74
S31500002240914203F8014FF9D110BD0244034693426F
S3150000225000D1704703F8011BF9E7FFFF4275696C6F
S315000022607420776974682052656E657361732041C6
S315000022706476616E63656420466C657869626C6538
S3150000228020536F667477617265205061636B616776
S31500002290652076657273696F6E20342E322E30009B
S315000022A0342E322E3000000000000204F8B500BFC4
S315000022B0F8BC08BC9E467047F8B500BFF8BC08BC21
S315000022C09E4670473C0E0105050100000401000012
S315000022D003010000020100000204000001040000E6
S315000022E00004000000C1814001C0804101C080415E
S315000022F000C1814001C0804100C1814000C18140D0
S3150000230001C0804101C0804100C1814000C18140BF
S3150000231001C0804100C1814001C0804101C08041AF
S3150000232000C1814001C0804100C1814000C181409F
S3150000233001C0804100C1814001C0804101C080418F
S3150000234000C1814000C1814001C0804101C080417F
S3150000235000C1814001C0804100C1814000C181406F
S3150000236001C0804101C0804100C1814000C181405F
S3150000237001C0804100C1814001C0804101C080414F
S3150000238000C1814000C1814001C0804101C080413F
S3150000239000C1814001C0804100C1814000C181402F
S315000023A001C0804100C1814001C0804101C080411F
S315000023B000C1814001C0804100C1814000C181400F
S315000023C001C0804101C0804100C1814000C18140FF
S315000023D001C0804100C1814001C0804101C08041EF
S315000023E000C1814000C0C101C30302C2C60607C7BF
S315000023F005C5C404CC0C0DCD0FCFCE0E0ACACB0B2F
S31500002400C90908C8D81819D91BDBDA1A1EDEDF1F5E
S31500002410DD1D1CDC14D4D515D71716D6D21213D34E
S3150000242011D1D010F03031F133F3F23236F6F737FE
S31500002430F53534F43CFCFD3DFF3F3EFEFA3A3BFBEE
S3150000244039F9F83828E8E929EB2B2AEAEE2E2FEF9E
S315000024502DEDEC2CE42425E527E7E62622E2E3230E
S31500002460E12120E0A06061A163A3A26266A6A7673E
S31500002470A56564A46CACAD6DAF6F6EAEAA6A6BABAE
S3150000248069A9A86878B8B979BB7B7ABABE7E7FBFDE
S315000024907DBDBC7CB47475B577B7B67672B2B373CE
S315000024A0B17170B05090915193535292965657977E
S315000024B0559594549C5C5D9D5F9F9E5E5A9A9B5B6E
S315000024C099595898884849894B8B8A4A4E8E8F4F1E
S315000024D08D4D4C8C4484854587474686824243838E
S315000024E04181804008010020AC25000084270000BF
S315000024F0010000000000DFDFFFFF00000000000019
S315000025000000000008250000000102000000DFDFD7
S31500002510FFFFFFFF000012000000000000000000A7
S315000025200000000000000018000000006400000029
S315000025300000000032000000000200004507000015
S315000025400000000048250000000000000000000018
S315000025500000000000000000000000000000000075
S3150000256000000000000000000000FFFFDFDF0000A9
S315000025700000000000000000020200000C010C0236
S315000025800C030C040000000000000000190D000000
S315000025900000000098250000000100002C0000202B
S315000025A00F00FFFF00000000FFFF000022000000F8
S315000025B0B425000004000000000100000400000033
S315000025C001010000040000000201000004000000F8
S315000025D003010000040000000401000004000000E4
S315000025E005010000000001000801000000000100D4
S315000025F009010000040000000A01000004000000B8
S315000026000B010000000001000003000000000104AF
S3150000261001030000000001040203000000000000A6
S315000026200303000004000000000400000400000092
S315000026300104000004000000020400000400000081
S31500002640030400000400000004040000040000006D
S315000026500504000004000000060400000000010557
S315000026600804000000000105090400000400000041
S315000026700A040000040000000B0400000000000033
S315000026800C0400000080000000050000008000002F
S315000026900105000000800000020500000080000027
S315000026A0030500000080000004050000040000008F
S315000026B000070000040000000107000004000000FD
S315000026C002070000C6008C018D018E018F01920168
S315000026D093019401950140000000000000000000F5
S315000026E000000000000000000000000000000000E4
S315000026F000000000000000000000000000000000D4
S3150000270000000000000000000000000000000000C3
S3150000271000000000000000000000000000000000B3
S3150000272000000000000000000000000000000000A3
S315000027300000000000000000000000000000000093
S315000027400000000000000000000000000000000083
S315000027500000000000000000000000000000000073
S315000027600000000000000000000000000000000063
S315000027700000000000000000000000000000000053
S31500002780000000001D1700004D1400003117000066
S315000027903D170000111500006515000059140000D2
S315000027A0AD140000CD140000F91400004915000016
S315000027B07D140000911400000A0900000A090000B7
S315000027C03F0B00000100020008001000000000009E
S315000027D0809698003200840305002C011400BC0288
S315000027E080A903008813000051000100440019115C
S315000027F046000000404B4C0012000000400035002F
S30D000028002502000001020000A0
S3150100A100FFFFFFFFFFFFFFFFFFFFFFFFFFFFFFFF58
S3150100A110FFFFFFFFFFFFFFFFFFFFFFFFFFFFFFFF48
S3150100A120FFFFFFFFFFFFFFFFFFFFFFFFFFFFFFFF38
S30D0100A130FFFFFFFFFFFFFFFF28
S3150100A200FFFDFFFFFFFFFFFFFFFFFFFFFFFFFFFF59
S3150100A210FFFFFFFFFFFFFFFFFFFFFFFFFFFFFFFF47
S3150100A220FFFFFFFFFFFFFFFFFFFFFFFFFFFFFFFF37
S3150100A230FFFFFFFFFFFFFFFFFFFFFFFFFFFFFFFF27
S3150100A240FFFFFFFFFFFFFFFFFFFFFFFFFFFFFFFF17
S3150100A250FFFFFFFFFFFFFFFFFFFFFFFFFFFFFFFF07
S3150100A260FFFFFFFFFFFFFFFFFFFFFFFFFFFFFFFFF7
S3150100A270FFFFFFFFFFFFFFFFFFFFFFFFFFFFFFFFE7
S3150100A280F8F8FFFFFFFFFFFFFFFFFFFFFFFFFFFFE5
S3150100A290FFFFFFFFFFFFFFFFFFFFFFFFFFFFFFFFC7
S3150100A2A0FFFFFFFFFFFFFFFFFFFFFFFFFFFFFFFFB7
S3150100A2B0FFFFFFFFFFFFFFFFFFFFFFFFFFFFFFFFA7
S3110100A2C0FFFFFFFFFFFFFFFFFFFFFFFF97
S7050000216574
